:020000040800F2
:108000000000032041E0000811AA000815AA00089A
:1080100019AA00081DAA000821AA000891E000087A
:1080200000000000000000000000000051340208C1
:1080300025AA000800000000E1330208D13102083F
:1080400091E0000891E0000891E0000891E000084C
:1080500091E0000891E0000891E0000891E000083C
:1080600091E0000891E0000891E0000891E000082C
:1080700091E0000891E0000891E0000891E000081C
:1080800091E0000891E0000891E0000891E000080C
:1080900091E0000891E0000891E0000891E00008FC
:1080A00091E0000891E0000891E0000891E00008EC
:1080B00091E0000891E0000829AA000891E000087A
:1080C0003DAA000891E0000891E0000891E0000856
:1080D00091E0000891E0000891E0000851AA000832
:1080E00091E0000891E0000891E0000891E00008AC
:1080F00091E0000891E0000891E0000891E000089C
:1081000091E0000891E0000861AA000891E00008F1
:1081100091E0000891E0000891E0000891E000087B
:1081200091E0000891E0000891E0000891E000086B
:1081300091E0000891E0000891E0000891E000085B
:1081400091E0000891E0000891E0000891E000084B
:1081500091E0000891E0000891E0000891E000083B
:1081600091E0000891E0000891E0000891E000082B
:1081700091E000080000000091E00008000000000D
:1081800091E0000891E0000891E0000891E000080B
:1081900091E0000891E0000891E0000891E00008FB
:1081A00091E0000891E0000891E0000891E00008EB
:1081B00091E0000891E0000891E0000891E00008DB
:1081C00091E0000891E0000891E0000891E00008CB
:1081D00091E0000891E0000891E0000891E00008BB
:1081E00091E0000891E0000891E0000891E00008AB
:0481F00091E0000812
:00000001FF
