:100000000080001035C2030069C20300D39B0300C7
:10001000D79B0300DB9B0300DF9B03000000000075
:1000200000000000000000000000000073C2030098
:10003000E39B0300000000003D67000079C203005D
:10004000316D0000ED660000B96300002D62000014
:1000500085C20300E79B0300EB9B0300EF9B0300BB
:10006000F39B03008FC2030091C2030093C20300FD
:1000700095C2030097C2030099C203009BC203000C
:100080009DC203009FC20300A1C20300A3C20300DC
:10009000A5C20300A7C20300A9C20300ABC20300AC
:1000A000E9490100AFC20300B1C20300B3C20300BB
:1000B000A5270100B7C20300B9C20300BBC20300F9
:1000C000BDC20300BFC20300C1C2030010B5054C8E
:1000D000237833B9044B13B10448AFF300800123F4
:1000E000237010BD6002001000000000B49B0500EA
:1000F00008B5064B1BB106480649AFF30080064819
:10010000036813B1054B03B1984708BD0000000018
:10011000B49B0500640200106002001000000000A3
:10012000024B1A6801321A60704700BF7C0200104F
:10013000014B1868704700BF7C0200107F2810B484
:100140000ED981B90E4B01E0802915D033F8022F6A
:100150008CB2824201F10101F6D104F1800080B23B
:100160005DF8044B7047FF2806D8064B803833F8FB
:1001700010005DF8044B704700205DF8044B704799
:10018000DE710400E071040061280AD007490022F2
:1001900001E0834206D031F8023F0132002BF8D152
:1001A00070470022024B33F81200704700700400C1
:1001B000E07204001F2811D920380322824001FA7E
:1001C00000F00E4BD3F8AC1121EA0202C3F8AC21C7
:1001D000D3F8AC211043C3F8AC017047032282402E
:1001E0008140064BD3F8A80120EA0202C3F8A821F7
:1001F000D3F8A8211143C3F8A811704700C00F40DD
:1002000001290AD041B9094A094BD2F8C4100B4060
:1002100023EA0003C2F8C4307047044A044BD2F802
:10022000C41003400B43C2F8C430704700C00F40F5
:10023000DEF7EFEF042808D8064B53F8203023B13F
:1002400022B91A6822EA0101196070471A6811433D
:1002500019607047C0740400042804D8024B53F896
:10026000203003B199617047C0740400042804D899
:10027000024B53F8203003B1D9617047C0740400B9
:1002800030B4427803210F2A88BF103A4FEA420265
:1002900001FA02F18478037804FA02F24FEA430388
:1002A00088BF01339B0003F1804303F530331C68A2
:1002B00024EA01011960196803240A431A6042788C
:1002C000C1780F2A88BF103A4FEA420204FA02F4BA
:1002D00001FA02F10378154A4FEA430388BF01335C
:1002E00052F8235025EA040442F8234052F82340F0
:1002F000214342F8231002790378012A41780BD078
:1003000030BC012202FA01F1094A52F8230020EA26
:10031000010142F8231070478A4030BC044850F86D
:1003200023100A4340F82320704700BF40C002401A
:1003300068C0024038B50446F8B1012821D1214AED
:10034000214B126889089508A3FB0505AD0C05FB38
:1003500001F5FE2D24D85508A3FB0505AD0C05FBC2
:1003600001F5FE2D25D8A3FB0205AD0C05FB01F51B
:10037000FE2D4FF000000BD838BD21F00301FE29FF
:1003800001D8002038BD4FF080435960012038BDAE
:100390002146FFF70FFF4FF0804320465D6038BDD8
:1003A00000200146FFF706FF4FF0804320465D60C6
:1003B00038BD00200221FFF7FDFE4FF080432046AC
:1003C0005D6038BD9C01001083DE1B4338B50546D7
:1003D00000200C460146FFF7EDFE4FF080431A69FE
:1003E000012C22F003021A611A6945EA02051D6117
:1003F00003D11A7842F002021A7038BD10B54FF0DE
:1004000080442369014603F00300FFF793FF23783C
:1004100043F00103237072B64FF08043AA215522A6
:1004200019721A7262B610BD4FF080431A7802F04A
:10043000FB021A70704700BF72B64FF08043AA21CA
:10044000552219721A7262B6704700BFF8B51E4E77
:10045000012303704370B36900251C491C4A837053
:10046000C570044613680868E360606025746574AD
:10047000A574E57425756575A575E57525766576AC
:10048000A576E57680277169B2692581678104F1D7
:100490001C0041F03EFEB2692946A0181C30C2F192
:1004A000100241F05AFE2946402204F12C0041F08E
:1004B00054FE29463A4604F16C0041F04EFE054BCD
:1004C0001868C4F8EC00F8BD00000820CC0000104B
:1004D000740A0010D47404002DE9F041214E82B05A
:1004E00034684FF035082046FFF7B0FF1E4B4FF041
:1004F000010C186ADD69C4F8F500986A0327042323
:100500003621322284F8F08084F8F1C084F8F27049
:1005100084F8F31084F8F920C4F8FB0084F8F43070
:1005200084F8FA30E5B1284642F0E1F904F201130B
:10053000C7B24FF00C0E84F8000184F8FFE02946A2
:100540003A46184641F0E5FDC4192146FF2301F85B
:10055000013B3068091A02B0BDE8F04101F0DEBB92
:10056000FF34F2E7700A00100000082070B51C4D3F
:100570002C682046FFF76AFF1A4B3520DA693721CD
:10058000012384F8F00084F8F31084F8F13084F843
:10059000F230C2B10426032006210C2284F8F53083
:1005A00084F8F46084F8F60084F8F71084F8F820F2
:1005B000F9342146FF2301F8013B2868BDE870406B
:1005C000091A01F0ABBB0322062184F8F53084F848
:1005D000F42084F8F62084F8F710F834E9E700BF37
:1005E000700A0010000008202DE9F0412F4B1C6814
:1005F0002378022B02D00020BDE8F081201D2C4979
:10060000042241F077FD06460028F4D1294D04F17B
:100610001C00AA69696941F06DFD024610B13046BF
:10062000BDE8F081244904F1F003098820691944E8
:100630008B42A862144623D205F1240805F1200C50
:1006400005F1340705F130062C350DE0032A28D0DA
:10065000062A22D0012A02D1D3F8020028605A7853
:100660000232134499420BD91A78332A10D0EDD9AB
:10067000362A08D0FF2A03D0352AF0D19C78EEE73D
:100680002046BDE8F081D3F80200CCF80000E6E790
:10069000D3F80200C8F80000E1E7D3F802003060A8
:1006A000DDE7D3F802003860D9E700BF700A001018
:1006B000CC000010000008208A0A001030B50D4C54
:1006C00083B04FF6FF736061A161002501A84FF46C
:1006D0008641E261A570ADF80430ADF8063000F057
:1006E000B1FB606010B14FF4884383800023238006
:1006F00003B030BD0000082070B57F4C2388B3F5EF
:100700009A7F00F0BC802FD940F24D12934200F046
:10071000A480B3F5A77F5BD340F25912934209D06E
:10072000B3F5B57F28D17548218A00F02FFA40F241
:1007300059132380724B1B789B0705D46F4800F038
:1007400033FA002800F0C2806B4D05F1080000F07C
:100750002BFA002800F0BC802B8AB3F57A7F40F298
:10076000BF8000232B8070BDB3F58E7F12D0B3F510
:10077000957F04D0002B77D00023238070BDA37811
:10078000022B00F0B2805D48218A00F0FFF94FF49F
:100790008E7323805A4D2B789E0713D5564E06F143
:1007A000080000F001FA00286BD0338A41F26F7222
:1007B00093429CBF5B003382FFF7D8FE4FF49573E2
:1007C000238070BD4D4800F0EFF90028E6D170BDE0
:1007D00040F243129342CFD1A378032B25D0484D4A
:1007E0004648218A00F0D2F94FF49A7323802B787F
:1007F000990704D4414800F0D7F9002867D03E4E4D
:1008000006F1080000F0D0F930B1338AB3F57A7FF1
:1008100048D90023338070BD2B789A0746D5FFF75F
:10082000E3FE052842D10323B370334812F0BAFA2D
:10083000606A00BA3DF026FE0022324B3DF098FE81
:10084000314B00223DF094FE3EF054F901462B4816
:1008500000F09CF940F24D132380274D05F108006C
:1008600000F0A2F930BB70BD284B01201A6864214A
:1008700002441A60A0702182FFF778FE83E7204DC2
:10088000B5E72B78980799D5FFF7AEFE022895D1EA
:10089000B0701E4B64211A68218201321A60FFF782
:1008A0001BFE9DE764333382FFF716FE40F24313CD
:1008B000238070BD164812F0FFF9144B64211A68AA
:1008C000298201321A60FFF707FE2CE770BD70BD68
:1008D000FFF78AFE05280AD04FF4B573238070BD58
:1008E00064332B82FFF7F8FDF6E7054DD1E70948A1
:1008F00012F0E2F99CE700BF000008200800082081
:10090000880A00100000E03F00005940CC000010B1
:10091000D8740400EC740400034B9B7813B9034AA9
:1009200013805380704700BF00000820740A001035
:1009300010B590F820300446062B0ED00B4A238ABF
:1009400012686068518A8B4298BF194601F0E6F937
:10095000062384F82030012010BD054B1B7803F0DE
:10096000040303F0FF00002BE8D110BD680A00105B
:10097000880A001090F82030062B01D00020704724
:10098000104B1B7813F0010319D00F4A038A126829
:10099000528A934209D842680021134443600123DC
:1009A000018280F820301846704741689B1A038204
:1009B0000A440123426080F82030184670471846E8
:1009C000704700BF880A0010680A0010024B1878B0
:1009D000C0F34000704700BF880A001038B5438854
:1009E0000446A3B1D52B0ED12046FFF7C3FF054621
:1009F0002046FFF79DFF284010F0FF0006D0228A16
:100A00006AB984F8202000236380022038BD4AB1EF
:100A100092B20282416080F82030002AF1D0D523C2
:100A20006380E1E74280012038BD00BFF8B545880A
:100A300004460E4617462DB1F42D14D000236380D2
:100A40000220F8BD01B310468847114B20821B6875
:100A500084F8205063600F4B1B785B0701D5384644
:100A6000B047F42363802046FFF784FF0546204605
:100A7000FFF75EFF284010F0FF00E2D0238A002B32
:100A8000E9D184F82030D9E761800120F8BD00BFAA
:100A9000700A0010880A0010C269038BD01A80B255
:100AA000704700BF70B5438882B00446002B2FD03A
:100AB00040F22112934226D1438A002B32D02B4A96
:100AC0002B4B12681B880220A260638284F82000EE
:100AD000228B002A37D013B3A2686369107818708C
:100AE000638A228BA6686569013B013A9BB292B288
:100AF00001360135814263822283A6606561E8D1B7
:100B0000A38B93422DD000236380022002B070BDDE
:100B1000808BE268638A20836261002BD8D140F227
:100B20002113638094F82030022B06D00191FFF747
:100B30004DFF01990028E9D0C1E70323002084F884
:100B4000203002B070BD002BE9D0A06810F8015B26
:100B5000013B9BB2A9426382A060D1D0002BF5D1AA
:100B6000DDE7002084F820006080CFE7700A0010E5
:100B70008A0A00100023C1604161C261028380F8CB
:100B80002030438203804380704700BF10B541602E
:100B90000446FFF7CDFA206010BD00BF90E80C00BE
:100BA00013440360704700BF10B50446FFF7C0FA56
:100BB00094E80C00801A984234BF0020012010BD38
:100BC0002DE9F041334CE37D062B03D0BDE8F04125
:100BD00012F030BA304D2B88B3F5C17FF6D3363BD7
:100BE0009BB25F08B3EB470F07F128034FF00006F5
:100BF0004FEA1322CCBF07F10108B84622742B80BC
:100C0000637484F8326084F8336000F0E7F8C0431E
:100C100060862676667600F0D1F82B88C0430E33C6
:100C200020832B8012F006FA1C4A08F12803106872
:100C30009BB24FEA132E4246C11984F810E02B8074
:100C4000637441F066FA3946154800F075F8154BA3
:100C500084F8326059789A781878DB7884F827100D
:100C600084F8293084F8282084F8336084F826003A
:100C700000F0B4F8C04360862676667600F09EF8F1
:100C80002B88C0430E3320832B80BDE8F04112F047
:100C9000D1B900BF380008208A0A0010700A00107D
:100CA0005E000820840A0010013A30B48D18A94271
:100CB00014D20B461C785A78023302EB042292B20B
:100CC000104480B2824284BF013080B29D42F1D88C
:100CD000CB432B4423F0010302331944A94201D032
:100CE00030BC70470B7830BC1B02184480B2834282
:100CF00084BF013080B2704738B50E4C0822637C47
:100D0000257C04F11A0103EB0525ADB2A5F10E0017
:100D100080B2FFF7C9FFA5F1140292B204F12201DB
:100D2000FFF7C2FF10B94FF6FF7038BD40BA80B26E
:100D300038BD00BF3800082070B4C478134B0C4491
:100D4000E4B2DC7082780D0A2A44D2B29A704678F6
:100D500095425E700078187003D90136F6B25E7065
:100D60008EB1C9B28C420CDA0132D2B29A70074B02
:100D70003AB95A780132D2B25A7012B91A7801329D
:100D80001A7070BC704701301870EAE7840A0010CE
:100D900010B5084C014620680830FFF7CDFF064A21
:100DA0002368507814789178D2781C7258729972AE
:100DB000DA7210BD680A0010840A001008B500201D
:100DC00005491422FFF770FF10B94FF6FF7008BDF8
:100DD00040BA80B208BD00BF46000820FFF78CBFB4
:100DE00030B4154B15490022154C04204FF4806592
:100DF00083F8B92183F8D92183F8F92183F81922DE
:100E000083F8392283F8592208702580A3F89421A9
:100E1000A3F89621A3F89821A3F89A21A3F89C217E
:100E2000A3F89E21A3F86422A3F8A822A3F8EC2239
:100E3000A3F8302330BC704738000820940200101B
:100E4000880200102DE9F0012A4C2B4EB4F86452B0
:100E50003288B4F8A872B4F8ECC2B4F83083013226
:100E600092B2B2F5FA4F1ED34FF480521023AB4228
:100E7000F5D0BB42F3D06345F1D04345EFD032808B
:100E80001E4A042695B1B4F8A8520127194C45B35F
:100E9000B4F8EC520DB3B4F8304334B316700020FC
:100EA000BDE8F001704753BA9BB2E0E715702C46DD
:100EB00004EB0414124EA4003219F0D09380D180B8
:100EC00048B103883353438853804023137210463C
:100ED000BDE8F00170473051F7E702242546157050
:100EE000E6E73D463C461570E2E7032425461570CB
:100EF000DEE700BF380008208802001094020010CE
:100F000098020820DFF850C02DE9F001DFF84C808E
:100F1000BCF89461002388F80030AEB101231F466D
:100F20000CF5CA7100E02F4631F8024F5A1C1E46DC
:100F3000D5B2134634B1062AF5D188F80050BDE881
:100F4000F001704788F800700CEB4606A6F8940193
:100F5000BDE8F001704700BF38000820940200107F
:100F60002DE9F04FBC4D042887B02B6821D0DFF865
:100F70000CB3BA4EBA4F0BF13602032832603A6016
:100F800070D0022800F0E680052800F087819BF8E9
:100F90000E30452B00F02981B24811F08DFEDFF8AC
:100FA000EC82B14C0023238088F8003007B0BDE804
:100FB000F08FDFF8D882AC4CAC4A1388002BF1D00C
:100FC00003F11C01AA4ADFF8B4B289B21268080A18
:100FD0008BF810008BF81110167A08335BBA1125C4
:100FE0000020ABF826308BF816608BF81750ABF862
:100FF000280090889F4BABF82200D58818885B8822
:10100000ABF82450ABF81C30ABF81A001088934BA7
:10101000ABF81E0050880BF136022180ABF820009F
:101020001A60954900230A884520013292B2140AB9
:101030008BF813208BF812408BF80E008BF80F30D2
:101040008BF815308BF81430ABF818300A80FFF7A6
:10105000B5FEC043ABF81800002388F8003007B095
:10106000BDE8F08F5A7E02F00F02032A97D11A8A48
:10107000DFF81882002A94D1082288F800207A4CE0
:10108000019311F07DFF794A019B98F8000000F070
:10109000200101F0FF05002900F08F8100211420BC
:1010A000DFF8D091597611808BF82F00282222800A
:1010B00050228BF82E201A7A06268BF82A205A7A8C
:1010C000B9F802108BF82B209A7AB9F800508BF8F7
:1010D0002C20D87A694A8BF82D00187B8BF82600D3
:1010E000587B8BF82700987B8BF82800D87B8BF8EF
:1010F00017608BF829009888ABF82200D888ABF8E5
:101100001A50ABF82400ABF81C101988ABF81E106D
:101110005988ABF820105B7EDB0640F14781002345
:1011200082F8313082F83030228800234021100AC2
:101130008BF811208BF810008BF816108BF83530D7
:101140008BF83430ABF83230FFF7D6FDC043ABF844
:10115000320066E74A4AD1780131C9B2D17061B92B
:1011600091780131C9B2917039B951780131C9B260
:10117000517011B9117801311170587E3A4C3B4AC7
:1011800000F0FD050021052D2180118000F0A080D8
:1011900000285ED0198A002900F0F780997E4D1E44
:1011A0009D76002955D1D97E082900F0A281451EDF
:1011B000012D40F29B8104299CBF4FF0030C0CFAD7
:1011C00001FC00F00F0094BF5FFA8CFC4FF0300C74
:1011D0000131451ED97683F81AC0072D39D8DFE8CA
:1011E00005F089A3A681388138811F4C9BF810A097
:1011F0009BF81120238802EB0A2A9A4526DC9BF8EB
:1012000014301FFA8AFA9906A4F800A040D19BF87E
:101210001530002B3CD1DFF85C90B9F80030002B82
:1012200040F0A280B9F80220002A40F09D8001938E
:10123000FFF7C4FD4FF6FF718842019B00F020814B
:10124000104811F039FDDFF84480ABE60E4811F08C
:1012500033FDDFF83880A5E6680A0010700A001038
:10126000800A0010007504008A0A0010780A001035
:101270008C0A0010740A0010820200103800082046
:10128000840200107075040028750400880A00109C
:10129000B34811F011FDDFF8F48283E6B14B1B680F
:1012A0009B88002B3FF47BAEAF4AB04CDFF8DC826A
:1012B00000230BF12A0108201380316039602B6074
:1012C000238088F800000292FFF716FA029A74E66B
:1012D0009A7E0132D2B2782A9A76BAD15976DFF85C
:1012E000AC825FE6DFF8A482DFF8A49211228BF8CB
:1012F0002F20DBE6DFF8989212204FF0020E042731
:1013000001265A252C2160228BF82F008BF836E01D
:101310008BF837708BF838608BF8395021808BF858
:101320002E20DFF86882C6E6DFF86492E5E7DFF892
:101330005C82042188F800100292019311F020FED3
:10134000029A019B11883A683260002900F0A88057
:101350001A8A002A00F0A4802832182122808BF8F3
:101360002F10DFF82C92A3E69BF817208049112A52
:10137000CA8B34D093427FF46CAFBBF82010B9F81D
:10138000022091427FF465AF51E700F00F0003287F
:10139000DFF8F8817FF406AE082188F80010029289
:1013A000019311F0EDFD029A019B6EE601215A2393
:1013B00082F8301082F83130B6E600F0100101F00A
:1013C000FF0C002979D0012604201121DD761E8230
:1013D00058761580DFF8B8918BF82F1066E64FF637
:1013E000FF708242C6D1098C9142C3D1BBF824E080
:1013F000AAF11C035F49BBF822A0BBF81A80BBF816
:101400001CB02380DFF85C91CDF80CB001F14403EF
:1014100001F5AA70059403E0443383427AD0614613
:1014200033F8402C9C46002AF6D07245F4D133F8AC
:101430003E2C0AB15245EFD133F8442C002A4CD14E
:1014400033F842BCBBF1000F06D04245E4D133F87B
:10145000422C039CA242DFD1434AC9F80010DFF8B6
:101460002C81454900230220138088F80000316058
:1014700039602B60059C0292FFF73EF9029A9CE5C9
:101480009BF81710DFF8E88006294CD01129ADD061
:10149000012954D0394811F00FFCDFF8F08081E5C4
:1014A00098F8002097077FF57DAD28211022218034
:1014B0008BF82F20DFF8D890FAE511882A4D49B132
:1014C000C00747D5A3F810C0588A814288BF108052
:1014D000118819820022DA7635E74FF6FF74A242AE
:1014E000B3D133F842BCA345AFD1B5E705297FF4AA
:1014F00062AE0022DFF894805A76802288F80020BD
:10150000019311F03DFD14228BF82F20DFF880901D
:10151000019BCBE51A48059CC9F800C0DFF86C8038
:1015200011F0CAFB3EE50290FFF7E6FB029A9042FB
:1015300030D0144811F0C0FBDFF8508032E598F845
:101540002220082A00F0AD800F4811F0B5FBDFF82B
:101550003C8027E5188A0028B6D028800146B9E7E4
:10156000587504008C0A0010780A00108A0A0010CE
:1015700038000820980208206200082084750400C2
:10158000B8750400DC750400A0750400880A00101A
:10159000740A0010B8F822C0B8F81A10B8F81C3055
:1015A000B8F8240008F5E072CDF80CC0049105935A
:1015B00008F5207CCDF800A012F8071CA2F120034A
:1015C00021B132F81C8C804500F08A8020326245BF
:1015D000F2D19BF82F30CC4903F03F03022B00F0EF
:1015E000C880DFF83C839BF82F20C74B52073FF59C
:1015F000D9AC93F8295093F82DE093F82C7093F818
:101600002B6093F8262093F8280093F8271093F87E
:101610002AC00135DFF80CA3EDB283F829E083F886
:1016200028704FF0140E282783F82760502683F87F
:101630002D5083F82C0083F82B108AF8002083F8B3
:101640002A2083F826C083F82FE0278083F82E60B5
:1016500065B90130C0B283F82C0038B90131C9B284
:1016600083F82B1011B9013283F82A20BBF82230FD
:10167000BBF82460BBF81A50BBF81C00A34FB9F8A4
:101680000010B9F802203B80ABF82430ABF82260A0
:10169000ABF81E50ABF82000ABF81A10ABF81C20CA
:1016A00042E5B8F824204FF6F6718A424FF0000068
:1016B0008CBF0932083288F82200A8F82420BBF831
:1016C0001C10BBF81A20B9F80200ABF82010ABF8D8
:1016D0001C00ABF81E20ABF81A30DFF84482BBE4E4
:1016E00032F81A8CDDF80CA0D0457FF46FAF32F8D9
:1016F000208CDDF810A0D0457FF468AF32F81E8C46
:10170000DDF814A0D0457FF461AF9BF82F20DFF8FF
:101710001082002012F0040FDDF800A02B6088F882
:101720000000DFF8E4C140F051829CF82EC0AAF11D
:1017300014004FEA1C1C4FEA8C0CCCEB0000DFF8C5
:10174000E4A101F00F0180B2022920808AF800C0D4
:1017500000F0F08010B9910700F0F180BBF826C0CE
:1017600018896949844500F03C8210228BF82F20AB
:101770009CE4B1F89461654ADFF8A8A1002786428D
:1017800010808AF8007011D0012601F5CA718AF81C
:10179000006002E0072E2CD0334631F8027F5E1C39
:1017A000B842F6B2F6D100238AF800309BF8B901AE
:1017B00020B30021564F0B4601260CE0062E5FFA9F
:1017C00086FE00F0B48097F83900314620370136A4
:1017D000002800F0A9800728F0D148010BEB000E8B
:1017E00023B19EF8BAE1997E8E45E7D9484B034470
:1017F000E4E7DFF82C818AF80030F4E60146DFF8F0
:1018000010C10CEB4113002B77D0032100260420DC
:10181000997619769E75DE76D875BBF824003D4919
:101820009880BBF822002B60D880BBF81A0091F892
:1018300000E01880BBF81CC04F788D78C978012073
:1018400058761882A3F802C083F80CE05F739D738A
:10185000D9739BF82910D9729BF8281099729BF8BC
:10186000271059729BF82610197202920193FFF704
:101870008FFA9BF82E10029A01F0F0005028019B7D
:101880007FF73AAD0F092449053F0D78BF008AF86C
:1018900000603046B8422CDA0BEB000696F8365062
:1018A000B64635B3012D09D0022D0AD09EF8376017
:1018B00006EB000EEEB15FFA8EF0EBE70130C0B23E
:1018C000E8E796F837C0BCF1040FEFD196F838700E
:1018D00096F839608AF8000046EA0726B6F5AD7F2B
:1018E00034BF30464FF4AD700D7016805882988228
:1018F00002E58AF800000D70FEE4084811F0DCF9FA
:10190000DFF81C80FFF74EBB380008208002001073
:10191000D80108208402001095020010F075040020
:10192000880A0010940200108AF800E067E78AF83D
:1019300000E068E702F03F0112297FF40BAFD20606
:1019400001D5198AD1B95A7E02F00F010139072950
:101950003FF628AB0FF2040C5CF821F0EF1B0000FF
:10196000811B0000B71A0000751A0000531A00000E
:101970003D1A00006B170000211A000003F10C0053
:101980000193FFF7D9F9A74A9BF82A001178019B28
:101990000391DDF80CC0A4498445D4D192F801C06C
:1019A00091F82B00CDF814C08445CCD191F82C00CF
:1019B0000490DDF810C090786045C4D191F82D10E6
:1019C000D2788A42BFD1039993F81BC01973059945
:1019D00098735973DA73BCF1000F19D1187E997E90
:1019E0009A7D411AA1EBD201C9B20A44D0B2CAB25F
:1019F00012F0800F18BF4A42D97D18BFD2B2A1EBB6
:101A000091010A44D2B2987502EBD0001876DA75CB
:101A1000187E01210022987688F800101A8292E739
:101A200098F80010814ACE077FF5BCAA00215976AC
:101A30001023137011F0A4FAFFF7B4BA98F800203D
:101A4000D2077FF5AFAA0721002259769A76FFF7D1
:101A5000A9BA208818B10193FFF79AF9019B9BF866
:101A60002F20D10700F1A3802288002A7FF47DAEC9
:101A7000FFF798BA208818B10193FFF789F9019B05
:101A80009BF82F2012F0010200F0968098F80020B9
:101A9000D50740F189800022072159769A761A826B
:101AA00001200193FFF774F9102288F8002011F04B
:101AB00067FA019B59E69BF82F10CD0724D5D00675
:101AC00022D41A8A002A7FF46DAA2088019301305B
:101AD00080B2FFF75DF998F80020208842F01001ED
:101AE00088F80010019B514910B142F012020A70AF
:101AF000019311F045FA019B012008210022188270
:101B00005976DA76FFF7F2BB89060BD59BF834C01D
:101B10009BF835003168258840EA0C200144281ADA
:101B200031602080208858B1D20609D498F800206E
:101B300042F0020288F800200193FFF729F9019B87
:101B40009BF830009BF83110394A01EB0021988A4C
:101B500089B28142118000D801B91080118898F8AB
:101B60000020598295073FF41DAA324A00211180B6
:101B70000292019311F004FA019B029AFFF785BAD1
:101B800098F80020D20706D59BF82F10264A01F0BE
:101B90003F01122952D0202388F8003011F0F0F9CB
:101BA0002B6800225A761EE506225A7678E707212E
:101BB000002259769A7673E798F80010C8077FF5E7
:101BC00053AF05211A825976FFF7ECB958761A48B7
:101BD00011F072F8202388F8003011F0D1F9FFF7E6
:101BE000E1B9088D598988427FF4BFADA7E698F81E
:101BF00000100E4AC9077FF5D5A920884FF0030EC3
:101C00004025002183F819E01570198228B142217E
:101C100011700193FFF7BCF8019B064A0021118067
:101C2000FFF7BDBB840A001038000820880A0010A6
:101C300080020010780A00101476040092F82E201A
:101C400002F0F001502939DD2F491209A2F1050EE9
:101C5000087800224FEA8E0E8AF8002072454EDA8C
:101C60000BEB020595F83600AC46002847D001285A
:101C700042D0022808D09CF8375005EB020C002D0A
:101C80003DD05FFA8CF2E9E795F83790B9F1040F8F
:101C9000F1D195F838E095F83950DFF874C045EA8D
:101CA0000E2EBEF5AD7F34BF75464FF4AD758AF884
:101CB00000200870ACF800E05D829D829BF828004F
:101CC0009BF829109BF826E09BF827500322987276
:101CD000D9725A7683F808E05D7201200193FFF70C
:101CE00057F8019B094A0021422019822180118066
:101CF00088F80000FFF753BB0132D2B2AEE78AF892
:101D000000200870DAE700BF95020010780A001082
:101D10008002001040BA80B2704700BF0A1E03461E
:101D200009DD0548054900680A80834203D0194649
:101D300092B240F0EEB97047800A0010780A0010A5
:101D40002DE9F0073B4B3C4EB3F81CC0B3F81E80A6
:101D50003A4D33460122002705E0092903F10C031F
:101D600017D017460A461888511CC9B20028F4D06B
:101D70005C88002CF1D06045EFD14445EDD1304A6C
:101D8000304C1068918822782F70586019819A72AF
:101D900024E0294B0122002701E017460A46188853
:101DA000511CC9B21C4610B9588800283CD00929DA
:101DB00003F10C03F1D1082A2A70224B11D093F8B9
:101DC00000C0214923460A4652F8060D0968928848
:101DD00043F8041B60609A8084F80AC0BDE8F007ED
:101DE00070470027DFF864A0DFF86490124A93F888
:101DF00000C0B8463B46917ADCB2C1EB0C01B94257
:101E000003F10103C4BFA046CFB2082B02F10C02BC
:101E1000F1D108EB48048AF8007089F8008085F851
:101E2000008006EB8404CCE7064B2F7093F800C0CB
:101E3000C7E700BF38000820A8030820960200105A
:101E40004E0008209902001054000820970200104C
:101E500098020010F0B4154A154D1678154B01364E
:101E6000F6B216700027012205E02A70CAB2092ACC
:101E700003F10C0318D05C881888511C204380B2F1
:101E80000028F2D0987A301A7728EEDD184600F84C
:101E9000017B01302A70CAB25F70092A00F8017B09
:101EA000077003F10C03E6D1F0BC704799020010F3
:101EB00096020010A80308202DE9F84F304C238823
:101EC000292B12D92F4D0026AB8A2680B3F5807FAF
:101ED00004D0B3F5007F0CD0BDE8F88F2A4FEA8C10
:101EE0003B889A4212D0BDE8F88F00232380BDE8DA
:101EF000F88F254BE98C1A889142F4D12A8D5B88A2
:101F00009A42F0D1BDE8F84FFFF71ABF2A8D7B88BF
:101F10009A42E8D1FFF714FF022329466B7551F866
:101F2000168F1A4BB1F804C01A689B88C5F8208038
:101F3000A5F824C0C5F81620B5F824B08B80D5F8D4
:101F400020A0B5F81C90B5F81E80B7F800C07F88B7
:101F5000082006216B81C5F806204FF02A03A5F85A
:101F600004B0C5F800A02E75A5F82690A5F8288025
:101F7000A5F81CC0EF83287369732380BDE8F88F30
:101F80008A0A001038000820740A00108C02001021
:101F90002DE9F84F504E4FF6FF73F28B95B29D42EC
:101FA0004FD0DFF858814D4BB8F8000019886840D1
:101FB00008423BD04A4B4B4F1D885B883D807B805D
:101FC000DFF83CA1B7F80290474B01244FF0000C1A
:101FD00005E0092A03F10C030DD0A4461446198824
:101FE000621CA942D2B21846F3D159884945F0D1B2
:101FF0008AF800C003E0082C8AF800402AD0034683
:1020000053F8040F9B883060B380384A384B15680A
:102010001F88948837480E3700210822C6F80650DA
:1020200084801F8071733273BDE8F88F318CB8F8EB
:1020300002005B8848401842BCD12A4F3A80798020
:10204000BEE7338CAB42ACD12B4B18689B88306019
:10205000B380DAE7FF2106221F4840F07EF8234BC9
:10206000244A798898881F68B8F80090002302F104
:10207000300B3473DFF88CA0B8F80280F584347428
:1020800006250424C6F80670C6F816709080908263
:10209000174A4FF02A0C318586F82030012186F846
:1020A000213086F8223086F8233086F8243086F8EE
:1020B0002530B574F474CAF800B0A6F81C90A6F8E0
:1020C0001E80A2F800C03375B37373747175F17319
:1020D0007573BDE8F88F00BF380008206C0A001047
:1020E0007C0A00109C020010A80308208C0200103B
:1020F0008A0A00103E0008203C760400740A001092
:1021000096020010700A001070B4134E75682A7899
:10211000A2B103780D2B11D00A2B0FD09A4214D103
:10212000002306E0C25C0D2A08D00A2A06D0944299
:102130000BD10133DBB2EC5C002CF3D1B268F36855
:10214000012081E80C0070BC70473668002EDDD19C
:10215000304670BC704700BF2479040010B5064CAF
:10216000206836F015FB054A0023106823603FF015
:1021700015F9012010BD00BFA8020010A402001034
:102180000A4B10B50A460C461B6801213FF0FCFEC5
:10219000A042034603D0FFF7E1FF002010BD044A30
:1021A000012011680B44136010BD00BFA402001091
:1021B000A002001070B5038D82B0B3F5957F044680
:1021C000164600F09B8018D9B3F5987F00F08980FF
:1021D0002FD8B3F5967F33D0B3F5977F24D100F194
:1021E0002805654840F083FB634902462846FEF710
:1021F000F5FBC8B9002002B070BDB3F5917F5FD088
:1022000059D940F22312934234D0B3F5947F0BD1C5
:1022100004F12805594840F06AFB5849024628460F
:10222000FEF7DCFB0028E5D000230220238502B066
:1022300070BDB3F5997F10D0B3F59A7FE8D0F3E77E
:1022400000F128054E4840F052FB4D490246284611
:10225000FEF7C4FB0028E7D1CCE700F12805494888
:1022600040F045FB474902462846FEF7B7FB0028E9
:10227000DAD1BFE700F12805434840F038FB424976
:1022800002462846FEF7AAFB0028B3D0002ECBD08A
:1022900004F1B4002E2140F07DFB064600284ED00C
:1022A0003A483146052240F04DFB002833D14FF427
:1022B0009573238524E0002BB6D14FF491730385E9
:1022C0000846019140F013FB04F1280502460199EC
:1022D0002846FEF783FB00288CD040F22313238589
:1022E000CAE700F128052A4840F001FB28490246C8
:1022F0002846FEF773FB002896D17BE700F12805FE
:10230000244840F0F4FA234902462846FEF766FBCB
:10231000002889D16EE720483146042240F012FBA4
:1023200018B94FF4967323858CE71C483146042274
:1023300040F008FB38B94FF49773238551E74FF409
:102340009473238566E716483146042240F0FAFA72
:1023500018B94FF498732385C5E731461148042214
:1023600040F0F0FA18B94FF49973238577E74FF4EA
:102370009A7323854EE700BF50780400447604002A
:102380006C7804000078040038770400807604003C
:10239000C87804003478040090760400887604003D
:1023A00030770400F878040038B5038D044603B391
:1023B000B3F5827F19D100F1280528460E4922463F
:1023C000FEF734FBA0B1B4F83C21D4F83431D4F892
:1023D00030119B1A002B0A44C4F83431C4F8302160
:1023E00003DD4FF482732385E7E700232385022072
:1023F00038BD00F12805F4E74524000038B50E4B40
:102400000E4D1B6804465A8A0121D0F838312868DD
:102410003FF060FB002803DDA4F83C0180B238BD2A
:10242000074A2B6810889178188000229970022042
:10243000A4F83C2138BD00BF680A0010700A0010E3
:10244000482705000A4B10B51A68D0F83431528A73
:1024500004469342D8BF9AB2064BA0F83C21D4F868
:10246000301118683FF055FEB4F83C0110BD00BFB4
:10247000680A0010700A001038B505460C4631B3E2
:10248000D8B1D1F8540111F0AFF9092805DD214682
:1024900012483FF015FF002038BD21462A4610485B
:1024A0003FF00EFF2846D4F8544140F005FA0146AB
:1024B000204611F081F9012038BD0A483FF000FFA5
:1024C000D4F85401294611F077F9012038BD0648A7
:1024D0003FF0F6FE4FF0FF3038BD00BFC4CA040025
:1024E000A8CA040090CA040064CA04002DE9F04799
:1024F000A64EA74D31782F68480682B0FC695FD49C
:10250000002C00F0FA8101F0080303F0FF022BBB5E
:10251000227011F0300F2CD10A062AD494F82D31F4
:10252000032B00F0D480A28840F2E7118A4200F029
:102530002082B2F5F47FC0F0928040F236218A42C8
:1025400000F0E78140F247218A4200F09781B2F51E
:10255000FF7F00F01D820022A280B5E023780133C6
:10256000DBB2272B2370D4D98A483FF05DFF2023AC
:1025700033702B688848D98849BA89B23FF0A0FEE9
:10258000D4F838311BB1854B18683EF007FFD4F8FA
:10259000400108B136F0FCF8D4F850313BB1D4F822
:1025A000540111F03FF9D4F8500110F0B3F920466E
:1025B00036F0EEF82B680022DA6102B0BDE8F08751
:1025C0004FF4AE7036F0DEF80446002800F09B8130
:1025D000F8613888FFF79EFB2B6882461888FFF762
:1025E00099FB2B6881465888FFF794FB2B6880463F
:1025F0005888FFF78FFB2B685FFA80FCB3F806E082
:1026000004F150079EFA9EFE1FFA8EF0C8F30F23C6
:10261000CDF800C0CAF30F215FFA89F2019060483B
:102620003FF04EFE3946201D6322FEF7A3FA3946DD
:1026300004F128006322FEF79DFA0023A4F84C3031
:10264000A4F84E3084F82D312370C4F83831C4F822
:102650004031C4F85431C4F85031317853E7002A7E
:1026600000F02381B2F5EC7F7FF475AF251D28467D
:102670002021FEF717FA002800F03C8104F15007F2
:1026800038464849032240F05DF9002840F0738144
:102690000123454984F82C3144483FF011FE40F2B3
:1026A000E713A38028462021FEF7FCF9002800F05C
:1026B000218194F850302F2B00F0AE81002310229E
:1026C000A38094F82D313270032B7FF476AFB4F8E9
:1026D0004C30B3F5AC7F00F0C78124D940F26B12C7
:1026E00093421BD0B3F5B67F3ED2B3F5B07F00F076
:1026F000278340F2488240F2611293420ED0B3F534
:10270000B57F2DD120462A490122FFF753FD00282D
:102710003FF453AF40F26B13A4F84C302046FFF760
:1027200043FED8B949E7B3F5A57F00F0DB8243D972
:10273000B3F5A87F00F0EA8240F2B98140F2551269
:10274000934271D0B3F5AB7F0AD104F12800194947
:102750000822FEF743F900283FF42FAF102333700F
:102760000023A4F84C3028E740F27912934200F09D
:102770006682B3F5BD7FC0F08C81B3F5BE7F00F0FB
:102780006F82B3F5C07FC9D0EAE700BF880A0010A6
:10279000680A001050CB040068CB0400A4020010AB
:1027A00018CB040000790400F8CA040098CB040098
:1027B0006476040080CD0400B3F5A27F00F06F8240
:1027C00040F24512934200F05A81002BC8D194F890
:1027D0002C31032B00F05F8204F1B405022B284654
:1027E00040F05283B94940F055F8002800F0738258
:1027F0002846B74940F04EF8002800F0808228466D
:10280000B44940F047F8002840F08982B24894F873
:102810004A113FF055FD94F84A31002B40F02081D9
:1028200040F25513A4F84C302046AC490122FFF782
:10283000C1FC00283FF4C1AE4FF4AB73238584E79D
:10284000A7483FF0F1FD94F82C31032B984600F097
:102850008D82012B00F08982022B40F0CD8004F1A3
:10286000B40738469B4940F015F8002840F05A83D9
:10287000042384F82D3140F24723A380B4F84E306E
:10288000D4F80C90E78A002B00F0838140F2BB1251
:1028900093420ED00023A4F84E3000220323E2829C
:1028A00084F8242084F82D3155E64FF4EC73A3808E
:1028B000DCE694F84B31012B19D033789B0719D5FE
:1028C000884B894A1D880123106884F84B31002DFC
:1028D00040F0F181D4F84471002F40F3FD8240F2C2
:1028E000BB13A4F84E3094F84B31012BE5D10023F3
:1028F00084F84B3194F82D31E6E67C483FF0E0FC5B
:102900002023337059E67A483FF08EFD2023337040
:1029100053E6251D28460A21FEF7C4F80028E9D011
:102920002846FEF7B9F80023204480F84F302846A7
:10293000D4F84471FEF7B0F804F150033A1A19467E
:102940001F46C4F844216B483FF0BAFC3846D4F81F
:10295000501110F029F8B4F858310133A4F8583167
:10296000D4F84431022B40F3398340F23623A3805C
:10297000D0E7251D96E638465F4904223FF0E2FF86
:10298000002840F04781022384F82C315B4983E61C
:10299000251D28460A21FEF785F80028AAD02846DA
:1029A000FEF77AF80023204480F84F3094F8503036
:1029B0000D2B3FF445AF04F15007394650483FF026
:1029C0007FFC38464F4910223FF0BCFF804600286C
:1029D00000F0E18138464C490B223FF0B3FF8046BE
:1029E000002800F0ED81384648490F223FF0AAFF49
:1029F0000746002800F0018294F82D1101292BD000
:102A0000022900F0B78104293FF435AF40483FF078
:102A100057FC94F82D319EE594F85130202B00F0AE
:102A20009C812846FEF738F804F1B40720440023BF
:102A300080F84F3004F1500138463C223FF098FFB7
:102A4000394634483FF03CFC0023012284F82D2114
:102A5000C4F8443184F84C314FF4FF73A38098E7F5
:102A60004FF4AC73A4F84C3020462B490122FFF7F9
:102A7000A1FB00283FF4A1AD40F25913238504F1D6
:102A8000280026490422FDF7A9FF00287FF466AE3E
:102A900093E540F2751293427FF462AE20462049DE
:102AA0000022FFF787FB00287FF458AE85E5B3F5D9
:102AB000A67F7FF455AE238DCD2B33D0D32B47D0BB
:102AC000002B57D00023238548E600BF2CCC040000
:102AD00038CC0400C4CB04006CCD0400887804001A
:102AE000B4CB04008A0A0010700A001034CB040032
:102AF000FCCA04007CCC040098760400E8CA0400F8
:102B0000CCCB040020780400F8CB0400B878040093
:102B100004CD0400A4CB0400E478040014CD040028
:102B200080770400D4F8540110F05EFE00287FF78F
:102B300044ADD4F8540110F089FE0146C4F84001B8
:102B4000002800F03082B7483FF0BAFBD32323853A
:102B5000D4F8405128463FF0CAFE2946024604F107
:102B60002800FDF73BFF00283FF427ADD4F84001D3
:102B700035F00EFECD232385D4F8540110F034FE39
:102B80000028D6DC19E540F2591293423FF477AFA2
:102B9000E6E504F1F005DFF8ECA22946A248D4F8F6
:102BA00044213FF08DFBDAF8000008B135F0F0FD6C
:102BB00028463FF09CFE053035F0E4FD9B4B8046F7
:102BC000294640F8043BCAF800803FF06DFE4046BD
:102BD00097493EF085FE974B8046DFF8A8A2186023
:102BE000002800F08981294693483FF069FB002FB7
:102BF0006ED048463946FFF7C3FA0546002800F074
:102C0000AE81D4F84431DF1BC4F84471012384F849
:102C10004B3161E63846894907223FF093FE002890
:102C200040F0E680032384F82C31854934E52946B9
:102C300084483FF045FB40F27913A4F84C3020461D
:102C400081490122FFF7B6FA00283FF4B6ACD4F868
:102C50003831002B00F0B1814FF4BE73A4F84C3032
:102C6000238D002B00F0C180B3F5897F7FF42AAF5C
:102C700004F12805284675492246FDF7D7FE0028AD
:102C80003FF49BACB4F83C71002F00F02E814FF460
:102C900089732385EEE74FF4A273A4F84C302046E5
:102CA0006B490122FFF786FA00283FF486AC40F218
:102CB00045132385E3E62946FFF762FA0746002815
:102CC00000F02881D4F844717F1BC4F8447103E6F6
:102CD000D4F844719AE75F483FF0A6FB4FF4A57320
:102CE000A4F84C30204658490122FFF763FA002827
:102CF0003FF463AC4FF4A673A4F84C30DBE65648BF
:102D00003FF092FB4FF4A873A4F84C3020464E4994
:102D10000122FFF74FFA00287FF420AD4DE4294649
:102D20004E483FF0CDFA04F598714D48FFF7ECF9A5
:102D300028464B493FF0B8FD4FF4B073A4F84C302F
:102D4000204648490122FFF735FA00283FF435AC08
:102D500040F26113A4F84C30E0E404F1B4073846C3
:102D600041493C223FF004FE6AE6032384F82D31FA
:102D7000FFF7F1BB94F82C8104F1B407B8F1020F0E
:102D800000F0D280394639483FF09AFA032384F89C
:102D90002D31FFF7E0BB2846FDF77EFE04F160070A
:102DA000204480F84E8038463EF08CFA3946024680
:102DB000C4F844012E483FF083FA94F82D111DE623
:102DC0002846FDF769FE04F1F007204480F84E80A4
:102DD00004F15C013B2238463FF0CAFD39462548E4
:102DE0003FF06EFA94F82D1108E604F128054EE73D
:102DF000394621483FF064FA60E42846FDF74CFE6E
:102E0000204480F84E7004F15F0108221B483FF017
:102E100099FD011C18BF012184F84C1118483FF09E
:102E20004FFAE9E534CD0400ACCC04002F73642FD5
:102E3000C4CC0400A40200100CCE0400A07804004E
:102E4000F0CA0400F8CD0400E4780400FD2300007B
:102E5000A07604001CCD04004CCD04008CCD0400F1
:102E6000F4770400647604000879040048CC040078
:102E7000E0CB040008CC040080CB0400AC78040054
:102E80001CCC0400A80200105C4904223FF05AFD4B
:102E900000286CD129465A483FF012FA2846594971
:102EA0003EF01EFDC4F83801002800F09F8094F821
:102EB0004C31002B3FF4BBAED4F8380120B13EF0CA
:102EC0006DFA0023C4F838314F483FF0ADFA40F2B4
:102ED0007513A4F84C30E1E5FFF740F9012384F8BD
:102EE0004A314A483FF0A0FAD4E4D4F838013EF021
:102EF00055FAC4F83871E5E5DAF8000035F048FC19
:102F00004348CAF800803FF08FFA84F84A81A4F859
:102F10004E80C2E43F483FF087FA84F84A71A4F833
:102F20004E70BAE484F82D8138463B493FF0B2FC3C
:102F3000002848D0384639493FF0ACFC00287FF4DF
:102F400021AFC4F85001D4F8441100239942A4F8E9
:102F500058317FF70AAF32483FF0B2F900E5314807
:102F60003FF062FA84F84A51A4F84E5095E40023E9
:102F700004F59877C4F8383139462846FFF7C4F885
:102F8000002894D128483FF04FFA39462748FFF7E8
:102F9000BBF8284625493FF087FC4FF4B573A4F8E9
:102FA0004C30FFF7AFBBB4F85831013B9BB2A4F8EB
:102FB0005831002B3FF486ADDCE54FF4C073A4F824
:102FC0004C30FFF7ABBB10F0EDFB2146C4F85401C9
:102FD00017480FF07FFCC4F85001B4E715483FF0E4
:102FE00023FA032384F82D31FFF7B5BA1248294696
:102FF0003FF066F904F59877C4E700BFA0CD040060
:10300000A8CD0400E8550500E4CD0400F4CC04008C
:10301000C8CC0400E4CC04002CCC040038CC040060
:1030200060CC0400DCCC0400D0CD0400F4770400B4
:10303000792400009CCC0400BCCD04004FF4A040D7
:10304000FDF760BF014B0360704700BF28CE04004E
:103050000249034A01608260704700BFA8EF040084
:10306000D88F050010B50A4B0A4A044603F15401F3
:1030700003F14800C4F890002360C4F89410C4F829
:10308000982004F1940002F033FA204610BD00BFEE
:1030900088F10400F0D50400A0F19800FFF7E2BF2A
:1030A000A0F19400FFF7DEBF10B5034B04460360A8
:1030B00002F076F9204610BD28CE040010B5044A6F
:1030C000044B04460260836002F06AF9204610BD9A
:1030D000A8EF0400D88F050010B50B4B0B4A04462F
:1030E00003F1540103F148002360C4F89000C4F8D0
:1030F0009410C4F8982004F1940002F0F9F92046E5
:1031000002F04EF9204610BD88F10400F0D504000D
:10311000A0F19800E0E700BFA0F19400DCE700BF59
:1031200038B50E4B044603F15C0503F1680103F169
:10313000800284E82800A16040F89C2F02F0D8F9B2
:10314000074B204603F14C0103F1580223606160F4
:10315000A26011F0F3F8204638BD00BFA8DB0400E0
:10316000E0EC0400A0F19C00FFF7DABF10B5034BC0
:103170000446036005F0F8FA204610BD00D50400AF
:1031800010B5054B0446036005F0EEFA204602F048
:1031900007F9204610BD00BF00D5040038B50F4B1D
:1031A000044603F15C0503F1680103F1800284E841
:1031B0002800A16040F89C2F02F09AF9084B2046A5
:1031C00003F14C0103F1580223606160A26011F029
:1031D000B5F8204602F0E4F8204638BDA8DB04002C
:1031E000E0EC0400A0F19C00D8E700BF2DE9F04717
:1031F000B94CA4B004F10A05204603F0E3FD2046D3
:103200000021023403F0F2FDAC42F5D1A8203AF0DF
:1032100073F9044601F0FCF8B04AB14B12686068DB
:10322000A3FB02120368920C9B68AE4998476A465A
:10323000AD4903A83AF060FF03A8616827F0FCFFDE
:10324000039BAA4FA3F10C00B84240F02382A84888
:1032500011F06CFED0F1010938BF4FF00009B9F14F
:10326000000F00F0D8810022134641F67B416069CF
:1032700000F0A4FB012101F091F801F079F8064675
:10328000002800F0EB816068DFF898A20368002254
:103290009B68CAF8002097499847974D54212868A1
:1032A00001F062FF064626F089FB3146204601F018
:1032B000BDFD0821286801F057FF064622F044FFB3
:1032C0003146204601F0B2FD1421286801F04CFF80
:1032D000064623F0B7FA3146204601F0A7FD7C21CF
:1032E000286801F041FF064622F074FF314620466F
:1032F00001F09CFD1021286801F036FF064621F000
:10330000A1FF3146204601F091FD4821286801F0D7
:103310002BFF064616F09AFA3146204601F086FD4C
:1033200001203AF0E9F806461CF0E8FA304602F0CF
:1033300037F820203AF0E0F8064619F025FA314631
:10334000204601F073FD08203AF0D6F86B4B064694
:1033500003601BF063F81EB1336830465B68984722
:103360004FF48871286801F0FFFE064624F020FD26
:103370003146204601F05AFD3821286801F0F4FE5C
:10338000064602F0C5F85E4B304640F81C3B02F0A2
:103390007BF996F834304FF0000868F3041386F890
:1033A00034303146C6F82480C6F82880C6F82C8010
:1033B000204601F03BFD0421286801F0D5FE0646B9
:1033C00002F0A6F84F4B31463360204601F02EFD47
:1033D00040203AF091F806460FF074FC3146204642
:1033E00001F024FD2C21286801F0BEFE064615F0F0
:1033F00057FE3146204601F019FD28203AF07CF8AE
:103400004146064623F074FC2046314601F00EFD8D
:103410003D4806F0F7FAB9F1000F06D0DAF80010CF
:1034200019B10831204601F001FD2046374901F06D
:10343000FDFC002213464EF6D321606900F0BEFA6F
:10344000002100F0ABFF00F093FF002840F0F78070
:103450000022134644F20901606900F0AFFA00212E
:1034600000F09CFF00F084FF002840F0DA8000228A
:1034700013464DF2BD11606900F0A0FA244900F036
:1034800099FF00F0BDFE234905463BF06DFE002884
:1034900067D004203AF030F81F49064628463BF032
:1034A000A7FC3BF0A7FE00220146304603F020FCBB
:1034B0003146204601F0BAFC28463BF005F8666824
:1034C000024635680B46AD6830461449A847204689
:1034D000134901F0ABFC27E0AC0200109C01001086
:1034E00083DE1B4330CE040088DD04004C0A00104C
:1034F00000C0072014CF04003003001028CE0400C1
:1035000018100500D0FB040020C0072054C107207C
:1035100000002041CDCCCC3D002474496CCE040089
:10352000BCC00720B8020010606900F001FA94F8EE
:10353000A430DB071BD4B9F1000F23D15B4C236807
:10354000DA68986992F85C1108F06AFA2368986A58
:1035500002F07CFE2368586A02F0FAFD24B0BDE850
:10356000F0876068524903689B689847AFE701217C
:10357000504803F03BFC5048494603F037FCB9F192
:10358000000FDBD04D484E493EF0AAF90646002810
:10359000D4D060684B490368484A9B689847DFF875
:1035A0003C818421324603A83EF08CF824AD464984
:1035B00003AA38B3606803689B6898479DF80C308D
:1035C00003A93B2B6A464FF0000E02A8E9D045F84C
:1035D0008C8DCDF808E03AF08FFD20462A46012177
:1035E00001F02AFC029BA3F10C00B842D9D053F899
:1035F000042C511E002A43F8041CD2DC69463AF020
:10360000E1FACEE76068314903689B689847304625
:103610003DF0C4FE92E760682D4903689B689847B7
:1036200031E628684C2101F09FFD2A49054605F046
:10363000EFFF6DB3291D204601F0F8FB17E7C0210D
:10364000286801F091FD2349064612F095FEEEB17F
:1036500006F19401204601F0E9FBF9E61E4DE82150
:10366000286801F081FD31468046E8223EF075FD74
:10367000B8F1000F05D017494046A1F1200211F022
:10368000C5FCDFF85CA0CAF8008007E63146E1E738
:103690002946D0E753F8042C511E002A43F8041C95
:1036A0003FF7D5AD01A93AF08DFAD0E5D40200106C
:1036B00090CE0400AC020010B2020010B0CE0400A4
:1036C000E8550500C4CE0400ECCE0400F4CE04009E
:1036D0004CCE040020C00720300300102C03001043
:1036E000B802001070B5FFF781FD0D4C002526468D
:1036F00020686A1C90F8A43092B2DB0706D5C5F3A7
:1037000000310848154603F071FB306800210A4675
:1037100001F092FB20680321002201F08DFBE7E716
:10372000D4020010AE020010F0B5254B254C83B03A
:10373000254E0093204601332449254A11F07AF999
:1037400004F1200532462349204639F0BDFE2846C3
:1037500006F084FA04F1C007324628461E4939F0C3
:10376000B3FE2946384612F007FE324638461B495A
:1037700004F5C0771A4D39F0A7FE2246384619499C
:1037800002F012FC32463846174939F09DFE2846B1
:10379000164903F00BFBA81C154903F007FB281D75
:1037A000144903F003FBA81D134903F0FFFA134962
:1037B00005F1080003B0BDE8F04003F0F7BA00BF20
:1037C00006C0092000C00720C800001009C0092059
:1037D00008C0092051300000213100006530000090
:1037E000AC02001028CF04006D31000032C0092067
:1037F00033C0092034C0092035C009209CC00920ED
:10380000004870472CCF04000048704758CF040090
:1038100038B5084B05280C461B680ADC80011D18CA
:10382000A91D281D3E22C4F30B143EF07BFCA5F815
:10383000424038BDBC02001038B5094B04464C204C
:103840001C6039F059FE082205464FF47A7104F0E5
:1038500065FD28462560034904F08CFE204638BDEE
:10386000BC02001011380000012070470020704792
:103870000120704710B5054B04460360406834F0E2
:1038800087FF034B2046236010BD00BF80CF04009C
:10389000F0D50400064B10B504460360406834F0D0
:1038A00077FF044B2046236001F07AFD204610BDCF
:1038B00080CF0400F0D5040038B540680D460A49B1
:1038C0003EF00EF8044670B128463FF010F8012192
:1038D0000246234628463EF057FB054620463DF06B
:1038E0005DFD284638BD38BD70CF040010B50368B3
:1038F0000A4A0446A3F10C00904282B002D120464D
:1039000002B010BD53F8042C511E002A43F8041CC9
:10391000F5DC01A93AF056F9F1E700BF4C0A0010B6
:103920000B460068114647F2693200F019BB00BF30
:1039300038B5046805462CB1204600F0E1F9204670
:1039400001F02EFD00232B6038BD00BFF8B50C46FA
:103950000546FFF7EDFF0C2039F0CEFD074600F0DD
:1039600093F92F606CB16C68AE68B44209D03946E7
:1039700000E0296854F8040B03689B689847A64246
:10398000F7D1F8BD10B504684CB1204600F0E2F95B
:1039900000B110BD064800F025FC0548F9E7054BCD
:1039A00005491B68586803689B689847204610BD06
:1039B000C0020010D4020010A0CF040000B583B0F4
:1039C000ADF800106946ADF80220ADF80430FFF7FD
:1039D000D9FF03B05DF804FBF8B5426803680446FC
:1039E000D31A9B100F4605D05A00934226D96FF088
:1039F000030600E00426304639F07EFD054694E8D3
:103A000009001B1A9B109A003968AF1807D045F8B7
:103A1000231094E809001B1A9B109A00AF1823B1D9
:103A2000014628463EF07EFB2068043708B101F0CD
:103A3000B7FC2E44A66084E8A000F8BDB2F1804F28
:103A4000D5D2DE00D7E700BF38B5436884680246A8
:103A5000A34206D009680BB1196043680433536070
:103A600038BDFFF7B9FF38BD2DE9F0410023064608
:103A700084B043608360C360054646F8043B102071
:103A800039F03AFD04AC07466E4905F007FD44F8ED
:103A9000047D30462146FFF7D7FF01AA6A49204638
:103AA0003AF02AFB204604F039F8039B674FA3F154
:103AB0000C02BA42804640F0B7802046B8F1000FB1
:103AC0005ED0614901AA3AF017FB102039F014FDCD
:103AD00021465F4A804604F0BFFF039BA3F10C0020
:103AE000B84277D1B8F1000F05D030462146CDF865
:103AF0000C80FFF7A9FF01AA564920463AF0FCFACC
:103B0000204604F00BF8039B8046A3F10C02BA4256
:103B100049D1B8F1000F1ED04E4901AA20463AF013
:103B2000EBFA102039F0E8FC21464B4A804604F0BD
:103B300093FF039BA3F10C00B84240D1B8F1000FF2
:103B400005D030462146CDF80C80FFF77DFF284692
:103B500004B0BDE8F08101AA404920463AF0CCFA11
:103B6000204603F0DBFF039B8046A3F10C02BA4220
:103B70004BD1B8F1000FEAD001AA20463749CEE771
:103B800001AA37493AF0B8FA204603F0C7FF039B71
:103B90008046A3F10C02BA4227D1B8F1000FAAD097
:103BA00020462F498EE753F8041C481E002943F88D
:103BB000040CAEDC104602A93AF004F8A9E753F869
:103BC000042C511E002A43F8041CB7DC02A939F06A
:103BD000F9FFB3E753F8042C511E002A43F8041CE4
:103BE00080DC02A939F0EEFF7CE753F8041C481E84
:103BF000002943F8040CD0DC104602A939F0E2FF9A
:103C0000B8F1000F3FF477AFCAE753F8041C481E21
:103C1000002943F8040CACDC104602A939F0D2FFAD
:103C2000B8F1000F93D0A7E753F8041C481E0029F1
:103C300043F8040C3FF741AF104602A939F0C2FF28
:103C40003BE700BFDCCF0400E4CF04004C0A0010C7
:103C5000F4CF040010D0040028CF04001CD00400CE
:103C6000FCCF040010B5054C204600F0A5FA204614
:103C70000349044ABDE8104039F026BCC0020010D8
:103C8000ED380000C800001000220260426082602F
:103C9000704700BF2DE9F04190E86000B54282B066
:103CA00080461CD0154F55F8044B3CB12368A3F156
:103CB0000C02BA4215D1204601F072FBAE42F2D19D
:103CC000D8F800000023C8F80030C8F80430C8F85D
:103CD000083008B101F064FB02B0BDE8F08128466D
:103CE000F0E753F8041C481E002943F8040CE2DCFA
:103CF000104601A939F066FFDDE700BF4C0A00104D
:103D000010B50446FFF7C6FF206808B101F048FB74
:103D1000204610BD10B5436882B053F8044D43608F
:103D200044B123680A4AA3F10C00904204D1204612
:103D300001F036FB02B010BD53F8042C511E002ACE
:103D400043F8041CF3DC01A939F03CFFEFE700BFA6
:103D50004C0A0010F8B590E85000B4420F4602D16A
:103D60000DE0A6420BD054F8045B384605F10C0177
:103D700006223EF0BFF90028F3D12846F8BD002501
:103D80002846F8BD2DE9F04F90E820024D458BB054
:103D90000F4624D0012600E0464655F8044BD7F8DC
:103DA00000A0E389B4F80CB00093238A06F101085F
:103DB000019322680292A37C0393E37C0493A0689E
:103DC0003AF082FBCDE9060162685B460892DAF8B8
:103DD0000840384603493246A047A945DCD10BB01C
:103DE000BDE8F08F2CD00400F8B5426803680446A3
:103DF000D31A9B100F4605D05A00934226D96FF074
:103E0000030600E00426304639F076FB054694E8C8
:103E100009001B1A9B109A003968AF1807D045F8A3
:103E2000231094E809001B1A9B109A00AF1823B1C5
:103E3000014628463EF076F92068043708B101F0C3
:103E4000AFFA2E44A66084E8A000F8BDB2F1804F1E
:103E5000D5D2DE00D7E700BF2DE9F04790E8A000FB
:103E600084B0BD428146019124D08A4601F10C08FC
:103E700001E0AF421ED02E68404606F10C0106223A
:103E80002C4604353EF036F90028F2D156B133689D
:103E9000184AA3F10C00904220D1304601F080FA7C
:103EA000DDF804A0C4F800A013483EF0BDFA04B049
:103EB000BDE8F087D9F808309F420AD0019B17B1BE
:103EC0003B60D9F804700437C9F8047004B0BDE849
:103ED000F087484601A9FFF787FFE8E753F8042C6D
:103EE000511E002A43F8041CD7DC03A939F06AFEEE
:103EF000D3E700BF4C0A001088D00400F8B5426830
:103F000003680446D31A5B100F4605D05A0093424B
:103F100021D96FF0010600E00226304639F0ECFAB4
:103F2000054694E809001B1A5B1039885A00AF183F
:103F300018BF25F8131043B9023708B101F030FA61
:103F40002E44A66084E8A000F8BD014628463EF055
:103F5000E9F82068F0E7B2F1004FDAD29E00DCE722
:103F60002DE9F04190E89000BC4282B0884602D131
:103F700014E0A74212D054F8045B2E8A9642F8D17E
:103F8000AE894645F5D1596898688E1C814208D0A3
:103F9000E88901B10880A7425E60ECD102B0BDE8BB
:103FA000F081184605F10E0101920093FFF7A6FF7C
:103FB000009B019ADDE700BF014B0360704700BF23
:103FC000B8D0040010B5034B0446036001F0E8F9D3
:103FD000204610BDB8D00400F0B50B6887B01A7841
:103FE0000C46232A71D053F80C3C022B6DD908469D
:103FF00000224749022339F05CFD461C054664D087
:1040000023681B5C232B60D00223204640492A46AC
:1040100039F01AFD431C074653D03D4920463A4625
:10402000022339F046FD06460130216850D08B5DF1
:10403000232B4DD051F80C2C7B1B95424ED82A4691
:10404000214602A83AF014F802A904A803F0C2FB22
:10405000142039F051FA054600F0AEF8BDF8101002
:10406000BDF81220BDF814300120A874A981EA819E
:104070002B82721C05232046264939F0E5FC421CA0
:10408000226818BFC6EB000352F80C2C08BF034689
:10409000964223D82146324603A839F0E9FF284644
:1040A00003A939F06CFC039B1B4CA3F10C00A0424C
:1040B00017D1029BA3F10C00A0421DD1284607B0E6
:1040C000F0BD216815483EF0FBF8002007B0F0BDB8
:1040D00013483EF0F5F8002007B0F0BD114839F064
:1040E000F5FB53F8042C511E002A43F8041CE0DCB5
:1040F00001A939F067FDDCE753F8042C511E002AB2
:1041000043F8041CDADC03A939F05CFDD6E700BFF4
:10411000D8D0040038D104004C0A0010DCD00400D0
:1041200040D1040020D1040038B51546FFF754FFF4
:10413000044618B128462146FFF78EFE204638BDBA
:10414000F0B583B014460F4601AA19491E4605462C
:1041500039F0D2FF21463846FFF73EFF044660B1F2
:10416000828933889A420BD02368124AA3F10C004B
:10417000904212D1204601F013F9284603B0F0BD59
:10418000C28973889A42EFD1B388028A9A42EBD1EE
:104190002846214639F02FFFE6E753F8042C511E3C
:1041A000002A43F8041CE5DC01A939F00BFDE1E726
:1041B00088DD04004C0A001010B5084900220023D5
:1041C0000446016083608274C2748281C28102826B
:1041D0004260034939F0A2FD204610BD580A001084
:1041E00088DD04000022002181608274C274828113
:1041F000C28102824260014939F090BD88DD04002D
:10420000F0B5837C87B004460BB9C37C03BB0023A5
:10421000214605A8039339F0E2FE04A805A903F09E
:10422000BBFB059B1F4DA3F10C00A8422FD1049EA0
:1042300003A930463FF02CFA039B0746B3420AD944
:10424000049BA3F10C02AA4215D1384607B0F0BD79
:10425000806807B0F0BD144BB4F80EE01B68268AE6
:10426000586822680168A389CDF800E001968C683F
:104270000E49A047E4E753F8041C481E002943F800
:10428000040CE2DC104605A939F09CFCDDE753F88C
:10429000042C511E002A43F8041CC8DC02A939F082
:1042A00091FCC4E74C0A0010D4020010C8D10400ED
:1042B000F0B5837C87B004460BB9C37C0BBB0023ED
:1042C000214605A8039339F08AFE04A805A903F046
:1042D00063FB059B204DA3F10C00A84230D1049E46
:1042E00003A930460A223FF06DFA039B0746B3420A
:1042F0000AD9049BA3F10C02AA4215D1384607B093
:10430000F0BD406807B0F0BD144BB4F80EE01B6878
:10431000268A586822680168A389CDF800E00196D2
:104320008C680F49A047E4E753F8041C481E002995
:1043300043F8040CE2DC104605A939F043FCDDE744
:1043400053F8042C511E002A43F8041CC7DC02A9B0
:1043500039F038FCC3E700BF4C0A0010D40200104B
:1043600058D2040010B5044639F039FE204610BD7D
:1043700008B5837C0BB9C37C43B9074900220323EA
:1043800039F062FB013018BF012008BD40680030E1
:1043900018BF012008BD00BFE4D2040010B50123FE
:1043A000044641600846E3743AF0CEFCA060204623
:1043B00010BD00BF01228160C2747047837C10B5BC
:1043C00004461BB90123C37439F015FE204610BD05
:1043D0000022026042608260C2607047F8B50469E2
:1043E00000F10806B4420F464FF000050DD02069D9
:1043F000394603685B6998478542B8BF0546204641
:1044000039F012F9B0420446F1D12846F8BD00BF98
:10441000F8B5314B0446036300F1B00100F14403E9
:10442000002243F80C2C43F8082C43F8042C0C33DE
:104430008B42F6D194F8A430284A03F0F5036FF3C9
:10444000451384F8A4304FF48C70146039F054F89C
:104450002349244A4FF41653054606F033FE2560DF
:10446000102039F049F80546FFF7FEFA2846656145
:104470000121FFF76BFA206810B103685B68984769
:10448000002525601C2039F037F81749034600F154
:1044900008020160026142610572C56085611349CD
:1044A0006360012204F1300039F038FC104A4FF209
:1044B000FF03D1680B4043F0BF6343F40033D36084
:1044C00035F0BEFB032800F2D381DFE810F076015F
:1044D000AF015401130000BF580A0010D4020010AD
:1044E00002C0092003C00920F0D2040010D3040048
:1044F00000ED00E042F6AA22002344F2ED116069CB
:10450000FFF75CFA4FF41651FFF748FFFFF778FE0C
:10451000BB4B4FF48C710646186800F025FE05462B
:1045200030463AF041FEB7490346B74A284606F0FE
:10453000C9FD25602B46002B00F09C81002213460C
:1045400060694CF6DF11FFF739FA0021FFF726FF0B
:10455000FFF70EFF94F8A43080F00100002260F312
:10456000000384F8A4306069134648F2AE01FFF7F7
:1045700025FA0121FFF712FFFFF7FAFE94F8A430A5
:10458000002260F3820384F8A4306069134643F686
:104590006621FFF713FA94F8A4102027C1F38001D5
:1045A000FFF7FCFEFFF7E4FE94F8A430002260F36E
:1045B000451384F8A4306069134645F68B31FFF744
:1045C000FDF90121FFF7EAFEFFF7D2FE94F8A430CF
:1045D000002260F3041384F8A4306069134642F2A9
:1045E0003C61FFF7EBF90121FFF7D8FEFFF7C0FEB2
:1045F000236894F8A420196860F3861284F8A42034
:1046000018468A689047282038F076FF054601F062
:1046100037FD2B6865629B6828469847402038F034
:104620006BFF054601F05EFEA5624FF4C27038F0E4
:1046300063FF0646FFF700F9744A4FF2FF01D068A6
:10464000734B014041F0BF614FF0100C4FF0080E6A
:10465000282541F400311820E662D16083F801C3B7
:1046600083F802E383F8037382F8220083F8165379
:1046700083F8185393F8052345F29E51D20818BFCA
:1046800083F80553624B93F80623D2081CBF2822F7
:1046900083F806235E4B93F80723D2081CBF282219
:1046A00083F807235A4B93F80823D2081CBF28220B
:1046B00083F80823002213466069FFF77FF9554904
:1046C000FFF76CFEFFF79CFD3AF094FD00221346C5
:1046D00060634AF25D516069FFF770F90121FFF7ED
:1046E0005DFEFFF78DFD0546606B3AF029FBA66A7B
:1046F0000146304601F0B8FD2946A06A01F0D2FD1E
:10470000282038F0F9FE054607F068F92B68A56106
:104710009B6828469847182038F0EEFE054606F0BC
:10472000EDFA2B68A5609B68284698474FF4B07057
:1047300038F0E2FE054609F083FE2B68E5609B68D1
:1047400028469847042038F0D7FE054600F0E0FEE2
:10475000314B28462B60256228F0BCFC1C2038F029
:10476000CBFE054607F010FB2561012038F0C4FEA2
:10477000E0612046F8BD42F6AA22002344F2ED1182
:104780006069FFF71BF94FF41651FFF707FEFFF7BB
:1047900037FD1B4B4FF48C710646186800F0E4FCA3
:1047A000054630463AF000FD1C4903461C4A28469F
:1047B00006F088FC25602B46BDE642F6AA220023BF
:1047C00044F2ED116069FFF7F9F84FF41651FFF765
:1047D000E5FDFFF715FD0A4B4FF48C71064618688E
:1047E00000F0C2FC054630463AF0DEFC0D490346B7
:1047F0000D4A284606F066FC25602B469BE600BF66
:104800003003001000C0092001C0092000ED00E0C5
:1048100000E100E0A0860100183005000AC0092070
:104820000BC0092002C0092003C0092042F6AA22B9
:10483000002344F2ED116069FFF7C0F84FF4165100
:10484000FFF7ACFDFFF7DCFC1A4B4FF48C7106460A
:10485000186800F089FC054630463AF0A5FC164978
:104860000346164A284606F02DFC25602B4662E6D4
:10487000236860E642F6AA2244F2ED116069FFF770
:104880009DF84FF41651FFF789FDFFF7B9FC094B6E
:104890004FF48C710646186800F066FC05463046F9
:1048A0003AF082FC06490346064A284606F00AFC0E
:1048B000256043E6300300100FC0092010C0092016
:1048C00002C0092003C009202DE9F0479B4BB0B07E
:1048D0000360804689464FF44C4044F68A510022DA
:1048E0000DF11B0301F02CFA08B98DF81B004046AE
:1048F0009349012239F000FB99F8A430980700F1A0
:10490000FA809DF81B20002A40F03481190740F1FD
:10491000C48040468B49042239F0EEFAD9F80C30B5
:10492000D3F800A1CDF828A0D3F8FC600B96D3F8FB
:10493000F8000C9093F83430DB0740F1C6808249D0
:104940003AF00AFB39F0C0FD04460D4630467E4978
:104950003AF002FB39F0B8FD06460F4650467A4958
:104960003AF0FAFACDE90045CDE9026739F0ACFD3D
:104970000DF1400ACDE90401744A504680213DF012
:10498000B7FE99F8A430802834BF044680245B0623
:10499000404640F18F806E49062239F0ADFA22463A
:1049A000514639F0A9FAD9F80C4094F85C31032B40
:1049B00028DD0325A36853F82560F06A3AF0C4F9AE
:1049C000316A3AF0C9FA94F834305F49DF0701D50B
:1049D0003AF0C2FA39F078FD5E4ACDE90001802153
:1049E00050463DF085FE5146802834BF0246802265
:1049F000404639F081FAD9F80C40013594F85C3121
:104A0000AB42D7DC0DA821460AAA07F08DFCD9F8E5
:104A10000C300F9893F83430DE0761D54A493AF0EC
:104A20009BFA39F051FD04460D460E9846493AF07E
:104A300093FA39F049FD06460F460D9842493AF07F
:104A40008BFACDE90045CDE9026739F03DFD3F4ADB
:104A5000CDE90401802150463DF04AFE99F8A4308A
:104A6000802834BF044680245D064CBF3A493B4948
:104A70000622404639F040FA5146224639F03CFAC7
:104A800099F8A43058063CD440463549032239F001
:104A900033FA404630B0BDE8F087D9F8180006F088
:104AA000CFFF002800F07E8140462E49042239F0D5
:104AB00023FA33E72C49062239F01EFA22465146E2
:104AC00039F01AFAD9F80C409CE739F0FDFC04469D
:104AD00030460D4639F0F8FC06460F46504641E791
:104AE00039F0F2FC04460E980D4639F0EDFC06460E
:104AF0000F460D98A5E740461C49052239F0FCF900
:104B00000CE7D9F80C40204607F0B8FC94F8343094
:104B1000D90700F14D8139F0D7FC154ACDE90001E4
:104B2000504680213DF0E4FD5146802834BF0246C6
:104B30008022404639F0E0F9A6E700BF580A00108D
:104B400014D3040028D304003333CB413CD30400F6
:104B500050D3040058D3040068D3040088D3040061
:104B600090D3040030D3040060D3040018D30400B1
:104B700070D304004046A049042239F0BDF9D9F8A9
:104B80000C0007A907F0A2FBD9F80C00C36933B1E8
:104B9000036A07A9143001229847D9F80C0090F84D
:104BA00034300798DA0700F1E98039F08DFC0446CB
:104BB00008980D4639F088FC064609980F46CDE95D
:104BC0000045CDE9026739F07FFC0DF1400ACDE9DF
:104BD00004018A4A504680213DF08AFD99F8A430AC
:104BE000802834BF044680245B06404640F1E480C0
:104BF0008349062239F080F92246514639F07CF982
:104C0000D9F80C4094F85C31032B28DD0325A36808
:104C100053F82560F06A3AF097F8316A3AF09CF957
:104C200094F834307749DF0701D53AF095F939F037
:104C30004BFC754ACDE90001802150463DF058FDFE
:104C40005146802834BF02468022404639F054F94C
:104C5000D9F80C40013594F85C31AB42D7DC099EA1
:104C6000079B089D0AA821460DAA0D960F930E9545
:104C700007F05AFBD9F80C300C9893F83430DE0763
:104C800040F1AE805F493AF067F939F01DFC044607
:104C90000D460B985B493AF05FF939F015FC064672
:104CA0000F460A9857493AF057F9CDE90045CDE942
:104CB000026739F009FC514ACDE9040150468021D0
:104CC0003DF016FD99F8A430802834BF04468024B6
:104CD0005D0640467BD54D49062239F00DF9514617
:104CE000224639F009F9D9F818304949186A3AF0DA
:104CF0007FF8D9F80C3093F83430D90702D5414900
:104D00003AF02AF939F0E0FB424ACDE9000180216E
:104D100050463DF0EDFC5146802834BF02468022CB
:104D2000404639F0E9F8D9F80C300024D3F84801AE
:104D300039F0CAFB384ACDE90001802150463DF0E8
:104D4000D7FC5146802834BF02468022404639F0C5
:104D5000D3F821460DAB224643F619300D9400F0EE
:104D6000EFFF00283FF490AE0D9800283FF48CAE82
:104D700017F014FF39F0A8FB284ACFE621493AF092
:104D8000EBF839F0A1FB04460D4608981D493AF0AE
:104D9000E3F839F099FB06460F46099819493AF0AD
:104DA000DBF80CE740461E49032239F0A5F8E6E699
:104DB00014493AF0D1F8AEE61A49062239F09CF8C7
:104DC0002246514639F098F8D9F80C4047E7164981
:104DD000062239F091F85146224639F08DF853E613
:104DE00039F072FB04460B980D4639F06DFB064610
:104DF0000F460A9859E700BF20D304003CD30400B3
:104E000050D304003333CB4158D3040068D304009B
:104E10000000704270D304007CD3040094D30400DB
:104E200038D3040060D3040088D3040008B50B68AD
:104E300008469B68984708BD2DE9F04F072983B0C5
:104E40008B46824690463CD0012301930BEB4B02EC
:104E500092000AF13801881846688C58B4421CD078
:104E60001F4F07EBCB02556805F001096D1006E0F6
:104E7000284457F83B2041469047A6420DD054F8AD
:104E8000040BB9F1000FF3D0415957F83B202844E7
:104E90008A5841469047A642F1D1BBF1070F02D094
:104EA00003B0BDE8F08F9AF8A4309B0702D5019BB0
:104EB000002BF5D1DAF80C0003B0BDE8F04F07F095
:104EC000D1BC90F8A420D8F1010138BF002161F3D2
:104ED000410280F8A420806906F0B2FD0190B5E798
:104EE00050D4040001EB410138B538308B00C518AF
:104EF0006C68C058A0420DD00368934218BF031DD0
:104F000003D108E00168914205D0A342184603F19D
:104F10000403F7D138BD011D8C4206D0631A9A10E4
:104F200003D092003DF0FEF86C68043C6C6038BD24
:104F300070B50C46064609B90AE02C463046E168D1
:104F4000FFF7F6FFA568204600F02AFA002DF4D1FD
:104F500070BD00BF054B10B5044640F8043BE16846
:104F6000FFF7E6FF024B2046236010BDF0D204009D
:104F7000F0D50400074B10B5044640F8043BE16847
:104F8000FFF7D6FF044B2046236000F009FA2046C5
:104F900010BD00BFF0D20400F0D50400F8B542689F
:104FA00003680446D31A9B100F4605D05A0093425B
:104FB00026D96FF0030600E00426304638F09CFA4C
:104FC000054694E809001B1A9B109A003968AF182F
:104FD00007D045F8231094E809001B1A9B109A008B
:104FE000AF1823B1014628463DF09CF820680437ED
:104FF00008B100F0D5F92E44A66084E8A000F8BD01
:10500000B2F1804FD5D2DE00D7E700BF00B501EB8B
:105010004101383000EB81004368816883B08B42E6
:10502000019207D00BB11A6043680433436003B0A8
:105030005DF804FB01A9FFF7B1FFF8E7F0B4104BEE
:10504000DFF854C00F4F104E00225CF80200B95830
:105050001C6941EA000524EA05041C615C69986149
:10506000B4500432142AD96103F12003EDD1074969
:105070000748084B052208601A60F0BC704700BF63
:1050800000C00920EC020010D8020010000300103C
:1050900080C009201803001004030010F0B4114A66
:1050A000DFF858C0104F114E00235CF80340F95848
:1050B0001569F0582143043325EA010501EA00048B
:1050C000142B21EA000115619461D16102F12002E3
:1050D000EBD107490748084B052208601A60F0BC6D
:1050E000704700BF00C0092004030010D802001060
:1050F0000003001080C0092018030010EC0200100B
:1051000004280AD81F2908D8012202FA01F1034B0A
:1051100053F820200A4343F820207047040300106E
:1051200004280AD81F2908D8012202FA01F1034BEA
:1051300053F820200A4343F820207047EC02001067
:10514000F0B4084C002725684FEA122C4160028118
:105150008F70CF7081F801C00A7005602060F0BCCC
:10516000704700BF1C0300108B0718BF21F003011C
:105170002DE9F00118BF0431456801F1040C1FFA54
:105180008CFC2B4610E093F801809A7841EA0821C4
:1051900041EA024141EA046161450A461EDA018999
:1051A00013446A18934215D8DA781978D70902F0AF
:1051B0007F041646E7D05E789C7841EA062141EAF2
:1051C000044102F07F0241EA0262018913446A1835
:1051D0009342E9D90020BDE8F001704746F080060F
:1051E0008C45DE7027DA03EB0C02D478CCEB01019E
:1051F00067F3C71404F08004C1F306652543C1F3C7
:105200000726C1F3074403F80C10D570567094704C
:10521000DC782CF0004C04F0800400214FEA1C25BF
:1052200083F800C05D70DC70997044680189121BBE
:105230008A4200DB00BEBDE8F001181D704700BFC8
:105240002DE9F00311F8013C11F8034C11F8042C7E
:1052500011F8025C6FF3C71342EA042242EA0542E6
:1052600003F07F0442EA04620F1F01F8013CBB18FF
:10527000DC78E50925D1456806895D1BB54200F358
:105280008D80BE5C93F801C09D7846EA0C2343EA0A
:10529000054304F07F0443EA046411F8015C2244EE
:1052A000C2F3066325F07F051D43C2F30724C2F352
:1052B000074301F8042C01F8015C01F8034C01F8E4
:1052C000023C466833787578B278F47843EA05236F
:1052D00043EA024304F07F0443EA0464324616E0E2
:1052E00004891A46A54206EB040C54DA1D7893F89B
:1052F000019093F80280DC7845EA092545EA0845E3
:1053000004F07F0455EA046445D0634543D2131981
:10531000951BBB422544E3D1D378DE09C3F3C01506
:1053200039D111F8046C11F8039C11F8028C11F8B2
:1053300001CC46EA092646EA08460CF07F0C46EA0C
:105340000C66344423F07F08C4F3066CC4F30726CC
:10535000C4F307432B432C4348EA0C0C2E4382F83A
:1053600003C056709370147011F8043C11F8032CAC
:1053700011F8024C11F8011C43EA0222436842EA88
:10538000044201F07F0142EA0161FB1A02890B44E9
:10539000934200DB00BEBDE8F003704700BE70E73B
:1053A000084B01461B684BB15A689142FAD31889E1
:1053B00002449142F6D21846FFF742BF084633F046
:1053C000E7B900BF1C0300102DE9F04F0A684468DC
:1053D00080469568084683B00F462346B8F80820F3
:1053E00024494FF00009A847DFF898B0D8F80460C6
:1053F000CA4602E0042D33D92C44E2783B68D20936
:105400001D4A9D6808BF5A46009260782378A178AB
:10541000E27843EA002343EA014302F07F0243EAD1
:1054200002620192A31B154922463846A8472178FB
:105430006578E378A27841EA0525D8F8046045EA62
:10544000024503F07F0245EA0265DB09C6EB040270
:10545000B8F808302A4408BFA9449A42AA44C9DBD4
:10546000396852468C684B4638460549A04703B018
:10547000BDE8F08FB0D30400A0D30400D0D3040063
:10548000F4D30400A8D304004368F0B405891C4693
:10549000002002E0042A14D91344D9785F78CA099D
:1054A0001A789E7842EA072201F07F0142EA06421A
:1054B00042EA0162C4EB0301114408BF8018A9420B
:1054C000E8DBF0BC704700BF704700BF704700BF0B
:1054D000704700BF704700BF704700BF704700BFF4
:1054E000704700BF704700BF704700BF704700BFE4
:1054F000014B0360704700BF20D4040010B5034B7C
:1055000004460360FFF74CFF204610BD20D4040082
:10551000014B0360704700BF20D40400024B0246D9
:105520001868FFF773BD00BFD402001010B44379B0
:10553000002B2FD103790F2B19D802225B0002FA1E
:1055400003F3504A0124116C0B4313640379116C6B
:10555000A34004FA03F321EA030313644379CBB9AC
:1055600003790F2B03D800205DF8044B704702220B
:105570005B0002FA03F3434A0124516C0B4353646A
:105580000379516C103BA34004FA03F321EA0303AF
:1055900053644379012B1DD0022B48D0032B5BD0E1
:1055A000042BE0D103790F2BDDD95B0002229A4056
:1055B000344B0124596E0A435A660279596E103AE7
:1055C000A24004FA02F221EA020200205A665DF8C3
:1055D000044B704702790F2A14D80221520001FAB5
:1055E00002F228498C6C22438A6404798A6C640034
:1055F000A34022EA03038B644379012BCCD10279C7
:105600000F2AB0D90223520003FA02F21D4B0124E3
:10561000D96C0A43DA640279D96C103AA24004FAD0
:1056200002F221EA0202DA644379022BB6D102794E
:105630000F2A98D852009340124A0124116D0B434F
:1056400013650379116DA34004FA03F321EA030300
:1056500013654379032BA3D103790F2B83D95B0007
:1056600002229A40074B0124D96D0A43DA65027978
:10567000D96D103AA24004FA02F221EA0202DA6578
:1056800043798DE700C00240827910B402F0FE0237
:1056900020246FF3410200210471827101605DF8E2
:1056A000044B704710B5837904469B0714D54379A2
:1056B0003BB9037901229A401B4B996E0A439A66C3
:1056C0004379012B12D0022B19D0032B21D0042BAC
:1056D00004D02046FFF72AFF204610BD237901227F
:1056E0009A40114B996F0A439A67F2E721790E4A63
:1056F0008B40D16E0B43D3666379022BE5D12379BE
:1057000001229A40084B196F0A431A676379032BE9
:10571000DDD1237901229A40034B596F0A435A671E
:105720006379042BD5D1D9E700C00240837930B426
:105730009B071ED54379F3B1012B4BD0022B00F010
:105740008B80032B72D0042B13D103790F2B10D92C
:105750005B0001229A404A4B0224596E0A435A6662
:105760000279596E103A520004FA02F221EA02025A
:105770005A6630BC704703790F2B16D801225B00A4
:1057800002FA03F33E4A0224116C0B4313640379BB
:10579000116C5B0004FA03F321EA030313644379F9
:1057A000002BC9D103790F2BE3D901225B0002FA48
:1057B00003F3334A0224516C0B4353640379516C55
:1057C000103B5B0004FA03F321EA030353644379BB
:1057D000012BB3D102790F2A14D8520093402849E3
:1057E00002248D6C2B438B6403798A6C5B0004FA72
:1057F00003F322EA03038B644379012B9ED10279E0
:105800000F2AB6D90123520003FA02F21C4B0224DC
:10581000D96C0A43DA640279D96C103A520004FA5E
:1058200002F221EA0202DA64437987E703790F2B57
:105830009FD95B0001229A40114B0224D96D0A4383
:10584000DA650279D96D103A520004FA02F221EABF
:105850000202DA65437976E702790F2A89D8520085
:1058600001219140064A146D214311650479116D9F
:105870006400A34021EA03031365437961E700BF95
:1058800000C00240837910B49B0716D54379BBB1A1
:10589000012B34D0022B5DD0032B4ED0042B0CD126
:1058A00003790F2B09D9103B03225B0002FA03F3A3
:1058B0002F4A516E21EA030353665DF8044B70478B
:1058C00003790F2B0ED803225B0002FA03F3284A58
:1058D000116C21EA030313644379002BD8D10379B7
:1058E0000F2BEAD9103B03225B0002FA03F3204A94
:1058F000516C21EA030353644379012BCAD1037924
:105900000F2B0ED803225B0002FA03F3184A916CA6
:1059100021EA030393644379012BBBD103790F2B55
:10592000CBD9103B03225B0002FA03F3104AD16C7F
:1059300021EA0303D3644379ACE702790F2ABCD987
:10594000103A520093400A49CC6D24EA0303CB6518
:105950004379A3E703790F2BAFD803225B0002FA48
:1059600003F3034A116D21EA03031365437993E7B7
:1059700000C00240837910B49B0715D54379B3B1B9
:10598000012B31D0022B57D0032B49D0042B0BD144
:1059900003790F2B08D9103B03225B0002FA03F3B3
:1059A0002C4A516E0B4353665DF8044B70470379E4
:1059B0000F2B0DD803225B0002FA03F3254A116C6A
:1059C0000B4313644379002BDAD103790F2BEBD906
:1059D000103B03225B0002FA03F31E4A516C0B4397
:1059E00053644379012BCDD103790F2B0DD80322BA
:1059F0005B0002FA03F3174A916C0B4393644379FB
:105A0000012BBFD103790F2BCED9103B03225B00B2
:105A100002FA03F30F4AD16C0B43D3644379B1E725
:105A200002790F2AC0D9103A520093400949CC6D2F
:105A30002343CB654379A9E703790F2BB4D803221D
:105A40005B0002FA03F3034A116D0B4313654379BC
:105A50009AE700BF00C002402DE9F0410F4686B032
:105A600004464A49384638F03DF838B9A37960F31E
:105A70004103A371204606B0BDE8F081444E01AD5C
:105A80000FCE0FC5A279D7F800803368002142F00D
:105A9000020206AF47F8181DA271694640460A2265
:105AA0002B603DF08FFE009BC0B2434560710AD968
:105AB000042808D806AA02EB800050F8142C2260B3
:105AC0001A782E2A0FD0A27900230199202002F003
:105AD000FD0263F3000220712046A2716371216010
