:020000040800F2
:1000000000C0012031080008DD060008E1060008F4
:10001000E5060008E9060008ED06000800000000FB
:10002000000000000000000000000000810800083F
:10003000F10600080000000081080008810800089F
:10004000810800088108000881080008810800086C
:10005000810800088108000881080008810800085C
:10006000810800088108000881080008810800084C
:10007000F506000809070008810800088108000843
:10008000810800088108000881080008810800082C
:10009000810800088108000881080008810800081C
:1000A000810800088108000881080008810800080C
:1000B00081080008810800088108000881080008FC
:1000C00081080008810800088108000881080008EC
:1000D00081080008810800088108000881080008DC
:1000E00081080008810800088108000881080008CC
:1000F00081080008810800088108000881080008BC
:1001000000000000810800080000000081080008CD
:10011000810800088108000881080008810800089B
:10012000810800088108000881080008810800088B
:10013000810800080000000000000000810800089D
:10014000810800088108000800000000000000008D
:10015000000000000000000000000000000000009F
:1001600000000000000000000000000081080008FE
:10017000810800088108000881080008810800083B
:10018000810800088108000800000000000000004D
:10019000000000000000000081080008810800083D
:1001A000000000000000000081080008810800082D
:1001B00081080008810800088108000881080008FB
:1001C00081080008810800088108000881080008EB
:0801D000810800088108000805
:1001D80010B5054C237833B9044B13B10448AFF379
:1001E80000800123237010BD40040020000000009F
:1001F8008047000808B5034B1BB103490348AFF318
:10020800008008BD0000000044040020804700086A
:10021800A3F5803A704700BF174B002B08BF134B5C
:100228009D46FFF7F5FF00218B460F461348144AF9
:10023800121A00F069F80E4B002B00D098470D4BAE
:10024800002B00D098470020002104000D000D4825
:10025800002802D00C4800F019F900F031F820000D
:10026800290000F089F900F01BF800BF0000080021
:100278000000000000000000000000004004002012
:100288004405002095040008A1040008504800080F
:100298000000002040040020400400204405002005
:1002A80008B50021044600F08BF8044B1868C36BAE
:1002B80003B19847204604F05DFA00BF10480008D3
:1002C80070B50D4E0D4D761BB61006D0002455F8AE
:1002D800043B01349847A642F9D1094E094D761BD3
:1002E80004F062FAB61006D0002455F8043B013435
:1002F8009847A642F9D170BD444800084448000810
:100308004C48000844480008830730B548D0541EBC
:10031800002A3FD0CAB2034601E0013C3AD303F8B1
:10032800012B9D07F9D1032C2DD9CDB245EA05251E
:100338000F2C45EA054536D9A4F1100222F00F0C1E
:1003480003F1200EE6444FEA121C03F1100242E9C1
:10035800045542E9025510327245F8D10CF10102F8
:1003680014F00C0F03EB021204F00F0C13D0ACF1D5
:10037800040323F003030433134442F8045B934259
:10038800FBD10CF003042CB1CAB21C4403F8012BB6
:100398009C42FBD130BD64461346002CF4D1F9E7EA
:1003A80003461446BFE71A46A446E0E7024B13B1DA
:1003B800024800F06BB8704700000000A104000874
:1003C8002DE9F84F2F4B2DED028B834618680F4609
:1003D80000F082F82C4BD3F80080D8F84861AEB111
:1003E80008EE10BA4FF001094FF0000A7468651E54
:1003F8000CD4013406EB840487B1D4F80031BB4235
:100408000CD0013D6B1CA4F10404F5D1BDEC028BAA
:100418001C4B1868BDE8F84F00F066B8736822688E
:10042800013BAB420CBF7560C4F800A0002AE8D0BD
:10043800D6F88801D6F804B009FA05F101420BD1C3
:10044800904772685A4513D1D8F84831B342D8D08A
:100458001E46002ECAD1D9E7D6F88C0101420CD12C
:10046800D4F8801018EE100A904772685A45EBD0FD
:10047800D8F84861002EB9D1C8E7D4F88000904771
:10048800DFE700BF300400201048000800230146C1
:100498001A46184600F02AB838B5084B084D5B1BB9
:1004A8009C1007D0043B1D44013C55F8043998477B
:1004B800002CF9D1BDE8384004F07CB95048000858
:1004C8004C480008704700BF704700BF704700BF26
:1004D800704700BF704700BF704700BF01207047DA
:1004E80001207047704700BF704700BF2DE9F047F3
:1004F800DFF880A00646DAF8000098460F469146D5
:10050800FFF7EAFF1A4B1B68D3F8484124B3656824
:100518001F2D26DC5EB96B1C0235DAF8000063601B
:1005280044F82570FFF7E0FF0020BDE8F08704EBF2
:1005380085010123C1F88890D4F88821AB401A437B
:10054800022EC4F88821C1F80881E4D1D4F88C219E
:100558001343C4F88C31DEE703F5A674C3F84841A9
:10056800D5E7DAF80000FFF7BFFF4FF0FF30DCE710
:1005780010480008300400200020704772B6FEE7DB
:10058800054BD3F888204FF0006142F47002C3F89D
:1005980088209960704700BF00ED00E0F0B5A9B071
:1005A800002406AF382221463846FFF7ADFE502218
:1005B8000DEB020621463046CDE90244CDE904445C
:1005C8000194FFF7A1FE204601F090FC02234FF4AE
:1005D8008072CDE90D33CDE911330693139340238F
:1005E800CDE9092338465523042710930F9700F0C7
:1005F800C9FF0F23019301AD0323029339464FF43A
:1006080080632846CDE90343059401F069FA304632
:100618001A9400F033F908B929B0F0BDFFF7AEFF1E
:1006280029B0F0BD2049234A8B6803F00C03082B3E
:100638007A4410B433D00C2B14D0042B0ED01E4B9C
:10064800D458236818491D4889681058C1F3031203
:10065800825CD34023605DF8044B70471649134B06
:100668005458EFE7C868CB6800F0030102290E4927
:100678000CBF0E480E48C3F303130133B0FBF3F06D
:10068800CB68C968C3F3062300FB03F3C1F34161D8
:100698000948013149001458B3FBF1F3D2E7064980
:1006A800034B5458CEE700BF001002400024F4006A
:1006B80000366E019CFBFFFFB0450000C0450000FE
:1006C80008B503F011FFFFF769FFBDE80840FFF721
:1006D800A9BF00BF704700BFFEE700BFFEE700BF2D
:1006E800FEE700BFFEE700BF704700BF024B034AAA
:1006F8007B44985803F088BCDCFAFFFFC44500002F
:10070800024B034A7B44985803F07EBCC8FAFFFFAB
:10071800C845000000B595B04C22002101A8FFF79C
:10072800F3FD41F201024FF00073684600920D9309
:1007380000F0A4F810B915B05DF804FBFFF71EFF30
:1007480015B05DF804FB00BF30B40E4D0021142233
:100758000124C0E90051C0E90924C0E90C428174B0
:10076800C160C1634261022182630E22C0E90612A0
:100778000482C2624FF4807230BC0162826002F06F
:1007880067BA00BF0064004010B51C4A006888B012
:10079800002303A99042C1E90133C1E9033303935C
:1007A80001D008B010BD03F1804303F504334FF0C6
:1007B80090409A6D42F000729A659A6D02F000724C
:1007C8000192019ADA6C42F00102DA64DB6C03F000
:1007D80001030293022209234FF4C05407930394A0
:1007E8000492029C02F05EF80F221146152003F0D5
:1007F800CDFC152003F008FD08B010BD00640040D2
:10080800074B02689A4200D07047064A936D23F05E
:1008180000734FF4C0514FF09040936502F04AB90D
:1008280000640040001002400D4885460D480E49FE
:100838000E4A002302E0D458C4500433C4188C4232
:10084800F9D30B4A0B4C002301E013600432A24297
:10085800FBD3FFF795FEFFF733FDFFF78DFEFEE7AD
:1008680000C001200000002040040020504800087B
:100878004004002044050020FEE700002DE9F04177
:100888000368044613F4002082B056D0AC4B9A6D2E
:10089800D20040F133810027AA4D2B6843F48073BE
:1008A8002B6003F043FE064605E003F03FFE831B82
:1008B800022B00F22E812B68DB05F6D5A04DD5F86A
:1008C800903013F4407327D0E26C9A4225D0D5F8C3
:1008D8009010D5F8903043F48033C5F89030D5F8AF
:1008E800903023F48033C5F89030CE0721F440735C
:1008F800C5F8903040F13E8103F018FE41F2883887
:10090800064605E003F012FE801B404500F2018117
:10091800D5F890309807F5D5E36C8949D1F890203F
:1009280022F440721343C1F89030002027B1844A62
:10093800936D23F0805393652368D90708D58049C0
:100948006568D1F8882022F003022A43C1F888207C
:100958009A0708D57A49A568D1F8882022F00C02B0
:100968002A43C1F888205F0708D57549E568D1F89A
:10097800882022F030022A43C1F888201E0708D5B3
:100988006F492569D1F8882022F0C0022A43C1F8AE
:100998008820DD0608D56A496569D1F8882022F4DF
:1009A80040722A43C1F88820990608D56449A56988
:1009B800D1F8882022F440622A43C1F888205A06D8
:1009C80008D55F49E569D1F8882022F440522A43C6
:1009D800C1F888201F0608D55949256AD1F888200A
:1009E80022F440422A43C1F88820DE0508D554493C
:1009F800656AD1F8882022F440322A43C1F8882059
:100A08009D0508D54E49A56AD1F8882022F44022D0
:100A18002A43C1F8882059050BD54949E56AD1F818
:100A2800882022F440122A43B5F5801FC1F8882097
:100A380071D01A050BD54249256BD1F8882022F4CC
:100A480040022A43B5F5800FC1F8882068D0DF043A
:100A58000BD53B49656BD1F8882022F040722A43B8
:100A6800B5F1807FC1F888205FD09E040BD534494A
:100A7800A56BD1F8882022F040622A43B5F1006FB7
:100A8800C1F8882056D05D040BD52D49E56BD1F807
:100A9800882022F040622A43B5F1006FC1F888200F
:100AA80052D019040BD52649256CD1F8882022F09C
:100AB80040522A43B5F1805FC1F8882049D0DA0353
:100AC8000BD51F49656CD1F8882022F040422A4393
:100AD800B5F1804FC1F8882040D05B030BD5184A88
:100AE800A16CD2F89C3023F440130B43B1F5001FDE
:100AF800C2F89C3037D002B0BDE8F0819A6D42F060
:100B080080529A659B6D03F080530193019B0127E6
:100B1800C2E603200AE7CA6842F48012CA6088E77E
:100B2800CA6842F48012CA6091E7CA6842F4801227
:100B3800CA609AE7CA6842F48012CA60A3E700BF95
:100B48000010024000700040CA6842F48012CA6077
:100B5800A7E7CA6842F48032CA60B0E7CA6842F4BC
:100B68008032CA60B9E7D36843F48013D36002B017
:100B7800BDE8F0811346D0E6314B324A0260D3F823
:100B8800882002F003024260D3F8882002F00C02A9
:100B98008260D3F8882002F03002C260D3F888203F
:100BA80002F0C0020261D3F8882002F44072426168
:100BB800D3F8882002F440628261D3F8882002F4D6
:100BC8004052C261D3F8882002F440420262D3F84E
:100BD800882002F440324262D3F8882002F440228E
:100BE8008262D3F8882002F44012C262D3F88820C7
:100BF80002F440020263D3F8882002F04072426394
:100C0800D3F8882002F040628263D3F8882002F08B
:100C18004062C263D3F8882002F040520264D3F8DD
:100C2800882002F040424264D3F89C2002F440122B
:100C38008264D3F8903003F44073C364704700BFF4
:100C480000100240FFFF0D00B0F5002F9D4A56D05E
:100C5800D36803F00303022B4AD0D36803F00303DD
:100C6800032B00F00B8100229649CB68B0F5007F7A
:100C7800C3F3031303F10103B2FBF3F300F00B8298
:100C88006CD8202851D800284ED001381F282DD8DC
:100C9800DFE810F0FB0022012C003D012C002C00A5
:100CA8002C0058012C002C002C002C002C002C00AF
:100CB8002C0074012C002C002C002C002C002C0083
:100CC8002C002C002C002C002C002C002C002C00BC
:100CD8002C009401D1F8882002F04042B2F1804FF4
:100CE80000F01682B2F1004F00F09F80002070479C
:100CF8001268754B12F4806218BF1A46B4E7D2F82E
:100D08009030D2F89020920703F4407300F1A0804D
:100D18006C4AD2F89420900700F1A180694A1068C3
:100D280010F4003040F0A2807047802800F09E81C7
:100D3800B0F5807F30D1D1F8883013F4403300F01B
:100D48009B80B3F5803F70D0086810F48060EBD0CA
:100D5800B3F5003F5C4818BF00207047B0F5804FDE
:100D680008D04CD8B0F5805F00F0488128D9B0F59C
:100D7800005FBBD1D1F8882002F04062B2F1006F69
:100D880000F05081D1F8980010F00200CCD0002A71
:100D98004E4818BF002070474028A7D1D1F88830A6
:100DA80013F4405368D0B3F5805F3ED0086810F460
:100DB8008060B9D0B3F5005F434818BF0020704782
:100DC800B0F5806F00F08A81B0F5006F8ED1D1F850
:100DD800882012F4400228D0B2F5800F00F0BA81C2
:100DE800B2F5000F00F0C081364B186810F480602F
:100DF8009AD0B2F5400F344818BF00207047B0F5BC
:100E0800803F3FF467AFB0F5802F10D1D1F89C2018
:100E180002F44012B2F5001F00F00481B2F5801F01
:100E280000F07481002A7FF461AF00F021BEB0F5B4
:100E3800004F7FF45BAFD1F8882002F04052B2F146
:100E4800805F00F0FC80B2F1005F7FF44FAFECE709
:100E5800B3F5807F7FF45CAF4FF400407047B3F583
:100E6800007F7FF45BAF4FF4FA407047B3F5407FE3
:100E7800174818BF0020704700F052BF1268154B82
:100E880012F4003218BF1A46EEE60E4AD2F888303D
:100E980013F0030300F04E81012BC6D012685105F0
:100EA80002D5022B00F03281064AD2F8900010F0E9
:100EB80002003FF439AF032B14BF00204FF4004069
:100EC800704700BF001002400024F400006CDC02F0
:100ED800B0710B0000366E01A54AD2F8883013F0C5
:100EE8000C03C9D0042BA0D01268520502D5082BD8
:100EF80000F00C819E4AD2F8900010F002003FF4F6
:100F080013AF0C2B14BF00204FF400407047984AD1
:100F1800D2F8883013F03003AED0102B85D0126889
:100F2800500502D5202B00F0F180914AD2F89000AC
:100F380010F002003FF4F8AE302B14BF00204FF43D
:100F4800004070478A4AD2F8883013F0C00393D023
:100F5800402B3FF46AAF1268510502D5802B00F090
:100F6800D580834AD2F8900010F002003FF4DCAE3E
:100F7800C02B14BF00204FF4004070477C4AD2F8C1
:100F8800883013F440733FF477AFB3F5807F3FF4B4
:100F98004CAF1268520503D5B3F5007F00F0B68058
:100FA800734AD2F8900010F002003FF4BDAEB3F5DA
:100FB800407F14BF00204FF4004070476C4AD2F8BD
:100FC800883013F440633FF457AFB3F5806F3FF4B4
:100FD8002CAF1268500503D5B3F5006F00F096806A
:100FE800634AD2F8900010F002003FF49DAEB3F5CA
:100FF800406F14BF00204FF400407047D1F888209C
:1010080002F04072B2F1007F3FF436AF002A00F0E0
:101018009380B2F1807F7FF469AEC86810F48010C5
:101028003FF482AEC868CA68C2F341520132C0F3C5
:10103800062003FB00F05300B0FBF3F07047C868CC
:1010480010F480303FF470AEC868CA68D20EC0F39E
:10105800062006D1464AD26812F4003F14BF112276
:10106800072200FB03F3B3FBF2F07047D1F8883096
:1010780013F440433FF400AFB3F5804F3FF4D5AECF
:10108800086810F480603FF44FAEB3F5004F39485C
:1010980018BF00207047D1F8883013F440233FF47C
:1010A800EBAED1F89420910703D5B3F5802F3FF428
:1010B800DAAE2F4A1268520502D5B3F5002F25D0B3
:1010C8002B4AD2F8900010F002003FF42DAEB3F591
:1010D800402F14BF00204FF400407047D1F88820FB
:1010E80012F440123FF4A1AEB2F5801F26D0B2F53B
:1010F800001F39D01E4B186810F480603FF414AEFE
:10110800B2F5401F1B4818BF0020704719480BE66E
:10111800C86810F480303FF407AEC868CA68D20EB9
:10112800C0F306209DD1CA6812F4003F14BF1122F3
:10113800072296E700F00ABE0F487047C86810F407
:1011480080103FF4F1AD02F18042A2F55F22D06831
:10115800D26869E702F17F5202F50432D06810F4D0
:1011680080103FF4E1ADF2E74BF68030704700BFE6
:10117800001002400024F40000366E01034AD2F841
:10118800903043F02003C2F89030704700100240BE
:10119800054BD3F8902022F02002C3F890209A69DA
:1011A80022F400729A617047001002400A4A0B4B01
:1011B800D2F8901041F02001C2F89010916941F4E2
:1011C800007191611A6842F400221A609A6842F428
:1011D80000229A60704700BF0010024000040140DE
:1011E800704700BF10B5054CE3699B0500D410BDDE
:1011F800FFF7F6FF4FF40073236210BD00100240A2
:1012080070B5264CE36C43F00103E364E36C88B0EB
:1012180003F00103042101930322019B039102239C
:101228000646002503A94FF09040049206930595C1
:1012380001F038FBA36DDA0009D4A36D43F08053A5
:10124800A365A36D03F080530293029B0125144B01
:101258001B68DB0512D5114AD2F8903023F0407391
:1012680043EA060040F08070C2F8900025B10B4AAE
:10127800936D23F08053936508B070BD01F03EFA7A
:10128800064AD2F8903023F0407343EA060040F053
:101298008070C2F8900001F039FAE7E700100240C8
:1012A8000070004010B51A4B9A6DD20082B01DD460
:1012B8009A6D42F080529A659B6D03F080530193BA
:1012C800019B144B1B68DB054FF0010414D5104A31
:1012D800D2F8903023F08073C2F8903024B10C4AD1
:1012E800936D23F08053936502B010BD094B1B68C2
:1012F800DB054FF00004EAD401F000FA044AD2F802
:10130800903023F08073C2F8903001F0FFF9E5E7E0
:101318000010024000700040114B9A6B42F480723A
:1013280010B49A63996B0F4A21F480719963D0E9DC
:101338000141036823430B43D0E90341234343EAB4
:1013480001435360136841695DF8044B23F4FE437D
:1013580043EA01231360136843F060031360704786
:101368000010024000200040024A136843F0800346
:101378001360704700200040074B5A6892B2026021
:101388001A68C2F3062242609A68120C82609B684F
:1013980003F40043C3607047002000402DE9F0418A
:1013A800054603F0C3F8224C06464FF00108022711
:1013B8006A1C34D003F0BAF8801BA84201D8002D6B
:1013C8002DD10120A268D30748BFC4F80C80A268B9
:1013D80048BF40F00200910748BFE760A26848BFD5
:1013E80040F00400520503D5042240F02000E260DA
:1013F800A268D30503D5042240F00800E260A26881
:1014080091050ED50422E260A268120740F0100090
:1014180003D50822E2600028CAD0BDE8F081002088
:10142800D0E7A2681307F4D40028C1D0F5E700BFBD
:1014380000200040704700BF704700BF704700BFE2
:10144800704700BF1B4A08B593681168D80701D5D3
:10145800C8071ED4980701D58A071FD4180701D5D5
:101468000A0721D4580713D5490711D513F48070FA
:1014780018BF08209A0548BF40F010005B050D4BC7
:101488004FF0040248BF40F02000DA60FFF7D8FFB1
:1014980008BD0123D360FFF7CDFF08BD054B02222D
:1014A800DA60FFF7C9FF08BD024B0822DA60FFF7D0
:1014B800C5FF08BD00200040F8B52D4D2E4C03F0A7
:1014C80035F82B6843F480737C4406462B6004E0AF
:1014D80003F02CF8801B022827D82B685B05F7D56A
:1014E8006B68234F43F080436B6003F01FF80123C0
:1014F800AB60064641F2883504E003F017F8801B1C
:10150800A84212D8BB6803F00C03042BF5D11B4B7F
:101518001849E2581A4B1160E358186802F0B6FFF0
:10152800044628B101242046F8BD03242046F8BD0E
:101538004FF480733B603B6002F0F8FF0C4E0546A9
:1015480004E002F0F3FF431B022BEED8336813F0DC
:101558000073F6D14FF480514FF0FF32F160B36160
:101568003262D6F8943043F40003C6F89430DDE7CD
:10157800001002400024F40004EDFFFFB045000015
:10158800BC4500002DE9F041AD4D82B07D440028F6
:1015980000F0108103680446D8072DD5A6498A684B
:1015A800C96802F00C020C2A00F0F680082A00F044
:1015B800F8806368B3F5803F00F03481B3F5A02F5D
:1015C80000F09D819C4E326822F48032326032688D
:1015D80022F480223260002B40F0298102F0A6FF1D
:1015E800074605E002F0A2FFC01B642800F2448110
:1015F80033689B03F6D423689F0728D58E4A9368DF
:10160800D26803F00C030C2B00F0EC80042B00F0E4
:10161800EE80E368884D002B00F01F812B6843F4AF
:1016280080732B6002F082FF064605E002F07EFF21
:10163800801B022800F220812B685805F6D56B68BC
:10164800226923F0FE4343EA02636B6023681A07AA
:1016580019D56369784D002B00F0B080D5F8943027
:1016680043F00103C5F8943002F060FF064605E038
:1016780002F05CFF801B022800F2FE80D5F894304F
:101688009F07F5D52368590741D56B4B9A6DD20052
:1016980000F1F6809A6D42F080529A659B6D03F0D6
:1016A80080530193019B0125644E3368DF0540F1A7
:1016B8001581A368012B00F0E580052B00F06981F6
:1016C8005D4ED6F8902022F00102C6F89020D6F898
:1016D800902022F00402C6F89020002B40F0D98018
:1016E80002F024FF41F28838074605E002F01EFFA9
:1016F800C01B404500F2C080D6F890309A07F5D458
:1017080025B14D4A936D23F08053936523689B065A
:1017180018D5A369484D002B00F0CC80D5F8983037
:1017280043F00103C5F8983002F000FF064605E0D3
:1017380002F0FCFE801B022800F29E80D5F898304B
:101748009F07F5D5E06918B33B4DAB6803F00C0370
:101758000C2B00F02C812B68022823F080732B605F
:1017680000F0DA80EB6823F00303EB60EB6823F00A
:10177800887323F48033EB6002F0D8FE044604E05B
:1017880002F0D4FE001B022876D82B689B01F7D400
:10179800002002B0BDE8F08101F0030103297FF4C5
:1017A80008AF254A126891037FF526AF6268002AC0
:1017B8007FF422AF012002B0BDE8F081D5F8943063
:1017C80023F00103C5F8943002F0B0FE064604E0A9
:1017D80002F0ACFE801B02284ED8D5F8943098074A
:1017E800F6D44FE702F00302022A7FF412AF124B3D
:1017F8001B685E0502D5E368002BDBD00E49226921
:101808004B6823F0FE4343EA02630E4A4B60AB5831
:10181800186802F03BFE0028CCD123681A077FF530
:1018280032AF16E7044A136843F48033136002F0BA
:101838007DFE014F06460CE000100240007000409B
:1018480040ECFFFFBC45000002F070FE801B6428DE
:1018580012D83B689A03F7D5CDE62B6823F480733A
:101868002B6002F063FE06462B685905D5D502F0B9
:101878005DFE801B0228F7D9032002B0BDE8F08185
:10188800002511E7644AD2F8903043F00103C2F80A
:10189800903002F04BFE604F064641F2883804E073
:1018A80002F044FE801B4045E6D8D7F890309907EF
:1018B800F6D525E7D5F8983023F00103C5F8983018
:1018C80002F034FE064604E002F030FE801B0228D7
:1018D800D2D8D5F898309807F6D433E7336843F46C
:1018E8008073336002F022FE07463368D8053FF55F
:1018F800E0AE02F01BFEC01B0228F6D9BCE703F1DC
:101908008043A3F53C331A6842F480221A601A68AF
:1019180042F480321A608AE702F008FE064604E0C4
:1019280002F004FE801B0228A6D82B689901F7D480
:10193800E9683A4B226A606A374E0B401343D4E990
:101948000A1243EA012343EAC263D4E90C120138BC
:10195800490843EA00130139520843EA4153013A5E
:1019680043EA4263EB602B6843F080732B60EB68BB
:1019780043F08073EB6002F0D9FD044605E002F005
:10198800D5FD001B02283FF677AF33689A01F6D5DC
:10199800FEE6214BD3F8902042F00402C3F89020D1
:1019A800D3F8902042F00102C3F8902071E7012893
:1019B8003FF401AFEB68226A03F0030191427FF420
:1019C800F9AE616A03F0F0020139B2EB011F7FF44E
:1019D800F1AEA16A03F4FE42B2EB012F7FF4EAAE46
:1019E800E16A03F07842B2EBC16F7FF4E3AE226B99
:1019F800520803F4C001013AB1EB425F7FF4DAAE5A
:101A0800626B520803F0C063013AB3EB426F14BF34
:101A180001200020CFE600BF001002400C809F018B
:101A280070B5124CE36C43F00103E364E36C86B0D9
:101A380003F0010300934FF4807300200193022305
:101A48000D46029303900323059001A94FF090409F
:101A580016460493009A00F025FFA36823F0FE437E
:101A680043EA06022A43A26006B070BD0010024095
:101A7800184B9A6802F00C02042A27D09A6802F0E0
:101A88000C02082A24D09A6802F00C020C2A01D011
:101A980000207047D968D86801F003010329C0F312
:101AA800031000F10102D8680CBF0B4B0B4BB3FBC2
:101AB800F2F2084BDB68C3F34163C0F3062001333D
:101AC80002FB00F05B00B0FBF3F07047034870477F
:101AD800014870470010024000366E010024F400EF
:101AE8002DE9F047854E7E4488B17F4A136803F09C
:101AF8000F038B420D4604460CD2136823F00F03E4
:101B08000B431360136803F00F038B4202D00120CC
:101B1800BDE8F0872368D90766D56268032A00F014
:101B28009E80724B022A1B6800F095805905EED5FD
:101B3800FFF79EFF6E4B984200F2C88062684FF034
:101B4800000A6A4FBB6823F003031A43BA6002F025
:101B5800EDFC41F28839804605E002F0E7FCA0EB95
:101B68000800484574D8BB68626803F00C03B3EBFF
:101B7800820FF2D123689A0738D4BAF1800F03D1C3
:101B8800BB6823F0F003BB60574F3B6803F00F03BB
:101B9800AB4248D823685A0706D55449E0688A6892
:101BA80022F4E06202438A601B0707D54F4A216985
:101BB800936823F4605343EAC1039360FFF758FF27
:101BC8004A4A4F4B9268F1584E4BC2F303128A5C53
:101BD800F1584D4B02F01F02D0400860F358BDE8A1
:101BE800F047186802F052BC9A07CDD5580704D5BB
:101BF8003E498A6842F4E0628A60190706D53B4A82
:101C0800936823F47C5343F4E0639360374AA168F4
:101C18009368354F23F0F0030B4393603B6803F060
:101C28000F03AB42B6D93B6823F00F032B433B604D
:101C380002F07CFC41F2883980463B6803F00F03D0
:101C4800AB42A7D002F072FCA0EB08004845F4D9DB
:101C58000320BDE8F08798033FF56AAF57E72349AB
:101C6800086887017FF553AFCF68C868C968DFF88F
:101C780080C007F00307032FC0F303100CBF1D4FEC
:101C88001D4F0130B7FBF0F0184FC1F3062100FBE0
:101C980001F1F868C0F3416001304000B1FBF0F198
:101CA80061451ED9B96811F0F00F05D013F0020A8A
:101CB8003FF447AFA368A3B90C498B684FF0800A7B
:101CC80023F0F00343EA0A038B603AE7074A936874
:101CD80023F0F00343F08003936062684FF0800ABA
:101CE8002FE74FF0000A2CE70020024000100240C6
:101CF80000B4C40400366E010024F400E6E6FFFFD9
:101D0800C0450000B0450000BC450000024B034A36
:101D18007B449B5818687047BCE4FFFFB04500003F
:101D280008B5FFF7F3FF064A064B926806497B445D
:101D3800C2F3022259588B5C03F01F03D84008BD38
:101D4800001002409EE4FFFFAC45000008B5FFF715
:101D5800DDFF064A064B926806497B44C2F3C2225D
:101D680059588B5C03F01F03D84008BD001002408F
:101D780072E4FFFFAC4500002F222B4B02601A686B
:101D8800510340D54FF4A0234360274B1A6802F44F
:101D98008072C2605A68C2F306620261D3F890206A
:101DA800520738D5052383601F4BD3F8942002F0DF
:101DB80001024261D3F8982002F0010282611A6898
:101DC80012F0807F14BF02220122C261DA6802F099
:101DD80003020262DA68C2F3031201324262DA686D
:101DE800C2F306228262DA68C2F34152013252001B
:101DF8000263DA68C2F34162013252004263DB686F
:101E0800DB0EC36270471B6813F4803318BF4FF4AE
:101E180080334360B9E7D3F8903013F0010318BF5B
:101E280001238360C0E700BF001002400E4B0F2261
:101E380002609A6802F0030242609A6802F0F002B7
:101E480082609A6802F4E062C2609B68DB0810B4A2
:101E580003F4E063054C036123685DF8044B03F069
:101E68000F030B60704700BF0010024000200240C3
:101E7800024A136843F400231360704700100240BD
:101E8800034AD2F8903043F02003C2F890307047EC
:101E980000100240034AD2F8903023F02003C2F821
:101EA8009030704700100240704700BF10B5054CD5
:101EB800E369DB0500D410BDFFF7F6FF4FF480732C
:101EC800236210BD00100240074B186800F4C06080
:101ED800B0F5806F06D0D3F8800010F4807018BF7A
:101EE8004FF40070704700BF007000403E493C4A04
:101EF800794430B468B9136803F4C063B3F5806FEC
:101F0800D2F8803020D023F4807330BCC2F88030FF
:101F18007047B0F5007F08D0136823F4C06343F41A
:101F28008063002030BC13607047136803F4C063FB
:101F3800B3F5806FD2F8803030D043F4807300203E
:101F480030BCC2F88030704723F48073C2F8803008
:101F58001068DFF898C0234C20F4C06040F400708B
:101F6800106051F80C301B68322101FB03F35169F2
:101F7800A4FB03039B0C490503F1010306D500E00C
:101F880023B151694D0503F1FF33F9D4144B5B6953
:101F98005C0554BF0020032030BC704743F48073B5
:101FA800C2F880301068114C0E4D20F4C06040F427
:101FB800007010600B591B68322101FB03F3516953
:101FC800A5FB03039B0C480503F10103DED501E0E3
:101FD800002BDBD05169490503F1FF33D6D5F7E76C
:101FE8000070004083DE1B43DCE2FFFFB0450000C9
:101FF800054AD36823F400731843D060D36843F4C8
:102008008073D360704700BF00700040024AD368F5
:1020180023F48073D360704700700040024A9368CD
:1020280043F400439360704700700040024A93688D
:1020380023F400439360704700700040062854D88A
:10204800DFE800F00E1C28323C460400284B1A6DCD
:1020580001F48061114319655A6D5A650020704773
:10206800234B186A21F4804202431A625A6A21F407
:10207800204122EA01010020596270471C4B9A6AEC
:1020880021F0100C11439962DA6A22EA0C0200204E
:10209800DA627047164B1A6B0A431A635A6B22EAC4
:1020A8000101002059637047114B9A6B0A439A63E8
:1020B800DA6B22EA01010020D96370470C4B1A6CD5
:1020C8000A431A645A6C22EA0101002059647047D5
:1020D800074B40F20762986C114008439864DA6C29
:1020E80022EA01010020D96470470120704700BF2F
:1020F8000070004006283DD8DFE800F00D161D24CA
:102108002B3204001C4A136D01F4806123EA01019B
:10211800002011657047184A136A21F4804123EAA8
:102128000101002011627047134A936A23EA0101F2
:10213800002091627047104A136B23EA01010020C6
:10214800116370470C4A936B23EA010100209163E5
:102158007047094A136C23EA010100201164704793
:10216800054840F20762836C114023EA010181644B
:10217800002070470120704700700040062858D89A
:10218800DFE800F00F1D2C36404A04002A4B5A6D38
:102198005A651A6D01F4806122EA0101002019656F
:1021A8007047254B586A21F4204202435A621A6A42
:1021B80021F4804122EA01010020196270471E4B78
:1021C80010B4DC6A21F010022243DA629A6A5DF8E0
:1021D800044B22EA0101002099627047164B5A6BA2
:1021E8000A435A631A6B22EA0101002019637047F7
:1021F800114BDA6B0A43DA639A6B22EA0101002079
:10220800996370470C4B5A6C0A435A641A6C22EA59
:102218000101002019647047074B40F20762D86C2F
:1022280011400843D8649A6C22EA0101002099649D
:1022380070470120704700BF0070004006283BD857
:10224800DFE800F009121B22293004001B4B5A6DED
:102258005A6500207047194A536A21F4204123EA3D
:102268000101002051627047144AD36A21F010011D
:1022780023EA01010020D1627047104A536B23EA18
:1022880001010020516370470C4AD36B23EA010116
:102298000020D1637047094A536C23EA01010020EA
:1022A80051647047054A40F20760D36C014023EA45
:1022B8000101D16400207047012070470070004080
:1022C800024A936843F4806393607047007000404B
:1022D800024A936823F4806393607047007000405B
:1022E800024A936843F4807393607047007000401B
:1022F800024A936823F4807393607047007000402B
:10230800024A536843F0100353607047007000405E
:10231800024A536823F0100353607047007000406E
:10232800024A536843F0200353607047007000402E
:10233800024A536823F0200353607047007000403E
:10234800024A536843F040035360704700700040EE
:10235800024A536823F040035360704700700040FE
:10236800024A536843F0800353607047007000408E
:10237800024A536823F0800353607047007000409E
:102388000368402B64D032D8102B7FD0202B7BD110
:10239800654B5A6A22F010025A621A6A22F0100239
:1023A8001A62DA6A22F01002DA629A6A22F01002DD
:1023B8009A624268D10303D5196A41F01001196283
:1023C800900304D558494B6A43F010034B62D10778
:1023D80004D555498B6A43F010038B62930751D596
:1023E800514AD36A43F010030020D3627047802B10
:1023F8004AD14D4B5A6A22F040025A621A6A22F0B8
:1024080040021A62DA6A22F04002DA629A6A22F01C
:1024180040029A624268D10303D5196A41F040012B
:102428001962900304D540494B6A43F040034B625C
:10243800D10704D53C498B6A43F040038B6293076C
:1024480020D5394AD36A43F040030020D36270474D
:10245800354B5A6A22F020025A621A6A22F0200288
:102468001A62DA6A22F02002DA629A6A22F02002FC
:102478009A624268D0034FD4910345D4D3073BD422
:10248800900732D40020704701207047264B5A6AC3
:1024980022F008025A621A6A22F008021A62DA6AFC
:1024A80022F00802DA629A6A22F008029A62426806
:1024B800D00303D5196A41F008011962910304D5C4
:1024C80019494B6A43F008034B62D30704D51649F0
:1024D8008B6A43F008038B629007D3D5124AD36AFC
:1024E80043F008030020D36270470F4AD36A43F0D1
:1024F80020030020D36270470B498B6A900743F092
:1025080020038B62BED5F0E707494B6A43F02003EE
:102518004B62D307B4D5EFE7196A41F0200119627D
:102528009103ABD5F0E700BF00040140024A1368ED
:1025380043F4804313607047007000401249144A06
:102548000868144B10B47A4420F480400860D358CB
:102558000E4C1B68A4FB034332209B0C00FB03F3C7
:102568004869840505D523B14A69920503F1FF330B
:10257800F9D4054B5DF8044B5B6913F4007F14BF75
:1025880003200020704700BF0070004083DE1B431B
:1025980086DCFFFFB04500000B490C4A0B6823F0AE
:1025A80007030B601369012843F00403136108D083
:1025B80040BF20BF20BF054A136923F004031361FD
:1025C800704730BFF7E700BF0070004000ED00E043
:1025D8000C490D4A0B6823F0070343F001030B6015
:1025E8001369012843F00403136108D040BF20BFDA
:1025F80020BF054A136923F004031361704730BFF5
:10260800F7E700BF0070004000ED00E00649074A08
:102618000B6823F0070343F004030B60136943F0CE
:102628000403136130BF70470070004000ED00E004
:10263800704700BF704700BF704700BF704700BFBA
:1026480010B5174C6369DB0324D4154C636B18076A
:102658001BD4134C636BD90612D4114C636B9A06C6
:1026680009D40F4C636B5B0600D410BDFFF7E6FF7F
:102678004023636310BDFFF7DFFF20236363F0E7A8
:10268800FFF7D8FF10236363E7E7FFF7D1FF0823BD
:102698006363DEE700F004F94FF480336361D4E745
:1026A80000040140024A936843F400539360704762
:1026B80000700040024A936823F400539360704707
:1026C80000700040024A936823F480439360704787
:1026D80000700040024A936843F480439360704757
:1026E80000700040044B9A6B42F080529A639A6BD8
:1026F80022F080529A63704700100240024A136821
:1027080043F480731360704700700040024A1368F6
:1027180023F4807313607047007000401C491D4B00
:102728004A6810B4046822F00E0222434A605A68CC
:1027380022F480325A601A6822F480321A60DA6809
:1027480022F48032DA609A6822F480329A60426811
:10275800D40303D5196841F480311960900304D576
:102768000C494B6843F480334B60D10704D50949C1
:102778008B6843F480338B60930704D5054AD3688C
:1027880043F48033D36000205DF8044B704700BFEA
:102798000070004000040140024A536843F00103FE
:1027A8005360704700700040024A536823F00103E9
:1027B80053607047007000400649CA6800F01F0C5B
:1027C80022EA0C0242EA5012CA608B684CEA030300
:1027D8008B60704700700040034A936800F01F0048
:1027E80023EA000393607047007000400D4B10B55A
:1027F8005B690C4660B99A0511D40B4A1369012C20
:1028080023F00403136108D040BF20BF20BF10BDD0
:102818009B05F2D4FFF78AFEEFE730BF10BDFFF744
:102828008DFEEAE70070004000ED00E0B0F5804F53
:10283800084601D0FFF7B0BEFFF7CABE0649074AEF
:102848000B6823F0070343F003030B60136943F09D
:102858000403136130BF70470070004000ED00E0D2
:10286800024A136943F002031361704700ED00E068
:10287800024A136923F002031361704700ED00E078
:10288800024A136943F010031361704700ED00E03A
:10289800024A136923F010031361704700ED00E04A
:1028A800704700BF2DE9F04F0D6883B0002D00F090
:1028B80094800022784E13468C46012101FA03F8D1
:1028C80018EA050E00F08280DCF8041021F01009E7
:1028D80009F1FF34012C40F28380D0F80C90DCF829
:1028E80008404FF0030808FA02F8944029EA08095A
:1028F80044EA0904C4606FEA0804D0F8008008EAD2
:10290800040801F00304944044EA08040460CC007D
:102918005CD5624C2746246E44F001043C663C6E4C
:1029280004F001040194019C23F0030404F18044A1
:1029380004F5803403F00309D4F808804FEA8909C4
:102948000F2707FA09FAB0F1904F28EA0A0819D0B8
:10295800534FB84200F08B80524FB84200F08D8040
:10296800514FB8427CD0514FB84200F08D80504F43
:10297800B8420CBF4FF0050A4FF0060A0AFA09F9E7
:1029880048EA0908C4F8088034686FEA0E08CF03DB
:1029980054BF08EA04044EEA0404346074688F03E0
:1029A80054BF08EA04044EEA04047460B468CF0211
:1029B80054BF08EA04044EEA0404B460F4688902C7
:1029C80054BF08EA04044EEA0404F460013335FAFB
:1029D80003F102F102027FF470AF03B0BDE8F08F9B
:1029E800D0F808A0DCF80C40DCF808704FF0030BB6
:1029F8000BFA02FB2AEA0B0A944044EA0A048460B0
:102A0800446824EA0808C1F300149C4044EA080416
:102A18004460C46807FA02F824EA0B0A48EA0A087C
:102A2800B9F1020F6FEA0B04C0F80C807FF465AFB0
:102A38004FEAD309DCF8107000EB890903F00708A6
:102A48004FEA880807FA08FBD9F820A00F2707FAE9
:102A580008F82AEA08084BEA080BC9F820B04CE73E
:102A68004FF0030A0AFA09F948EA09088AE7012730
:102A780007FA09F948EA090884E74FF0020A0AFA4E
:102A880009F948EA09087DE74FF0040A0AFA09F942
:102A980048EA090876E700BF000401400010024038
:102AA8000004004800080048000C004800100048D6
:102AB80000140048002900F082802DE9F04F00231F
:102AC8003F4EDFF810B14FF00F094FF0030A4CE00A
:102AD800584565D03B4FB84266D03B4FB84267D0A7
:102AE8003A4FB84267D03A4FB84214BF0627052775
:102AF80007FA04F4A44513D1346824EA0E043460B8
:102B0800746824EA0E047460B46824EA0E04B4609D
:102B1800F46824EA0E04F460AC6824EA0804AC60A3
:102B280005685C000AFA04F44FEAD30C254300EB6D
:102B38008C0C056003F00705DCF820E0AD0009FA0D
:102B480005F52EEA0505CCF82050C56825EA0405E8
:102B5800C560456825EA02024260826822EA0404E8
:102B68008460013331FA03F218D001229A4012EA44
:102B7800010EF6D023F0030505F1804505F58035F3
:102B880003F00304D5F808C0A40009FA04F8B0F16A
:102B9800904F08EA0C0C9BD10024ABE7BDE8F08FFE
:102BA800012707FA04F4A5E7022707FA04F4A1E7C6
:102BB8000AFA04F49EE7042707FA04F49AE7704730
:102BC8000004014000080048000C004800100048BC
:102BD80000140048000400480369194214BF01208A
:102BE800002070470AB1816170478162704700BF59
:102BF800436901EA030221EA030141EA02418161D2
:102C0800704700BF82B04FF480330193019B0B43A0
:102C18000193019BC361C161019BC361C3690193B6
:102C2800C06980F48030C0F3004002B0704700BF34
:102C3800704700BF044A5169014200D1704708B586
:102C48005061FFF7F5FF08BD00040140704700BF61
:102C5800002800F0FE802DE9F04190F85C30044631
:102C680003F0FF02002B73D02268936923F010034E
:102C7800936101F05BFC054604E001F057FC431B3F
:102C88000A2B5BD823689A691207F6D49A6942F02E
:102C980001029A6101F04AFC054604E001F046FC95
:102CA800401B0A284AD822689369DB07F6D593693E
:102CB8006B4943F002038A42936100F0C580237C8C
:102CC800012B93690CBF23F0400343F04003936149
:102CD800637C012B93690CBF43F4804323F4804346
:102CE8009361A37C012B93690CBF23F4805343F4B5
:102CF800805393619369A068E16823F440730343A8
:102D08009361936923F0A40393611369012923F064
:102D18001003136121D021B30229936900F09B802D
:102D280043F0800393611369032943F0100313618F
:102D380017D1936943F02003936112E0236E0322B5
:102D480043F00103236684F85C200120BDE8F0818C
:102D580080F85D20FDF718FD86E7936943F00403CA
:102D68009361D4E90613013B01391B0243EA41632D
:102D7800216A01390B436169013943EA0143B0F51E
:102D8800407FD3610ED1D4E90B03A16A013B01381E
:102D98001B01013943EA00230B43616A013943EA05
:102DA8000143D360D2F8C030E16B2E482E4D666BDC
:102DB8002E4FDFF8D0C0DFF8D0E0DFF8D0808242B5
:102DC80043EA010300F58340C2F8C03000F148002F
:102DD80008BF0546D2F88000254B264920F4F81094
:102DE80040EA0640244E1CBF194633462364C2F805
:102DF8008000D2F88000A66B20F0706040EA066080
:102E08001E4E18BF3E46A7F1D80708BF6746ACF567
:102E1800856C08BFF446AEF5647E08BFC646C4F8A4
:102E280044E0C2F88000C4E912C7C4E9146500226E
:102E380043F8042B8B42FBD30123226684F85C30D1
:102E4800A2650020BDE8F0810D4B6168C3F800154C
:102E580035E70120704743F02003936181E700BF05
:102E6800006400400068004078A6004060A600406A
:102E780050A70040A0AA004000A40040B0A900400C
:102E880000600040D8A8004000A80040C0A700404B
:102E9800704700BF026838B5936943F01003936127
:102EA800044601F043FB054604E001F03FFB431BE9
:102EB8000A2B05D823689B691B07F6D5002038BD67
:102EC800236E032243F00103236684F85C2001206B
:102ED80038BD00BF026838B5936923F010039361C9
:102EE800044601F023FB054604E001F01FFB431BE9
:102EF8000A2B0AD82268936913F00803F5D191695F
:102F080021F001011846916138BD236E032243F078
:102F18000103236684F85C20012038BD90F85C200A
:102F2800013A012A034605D9026E42F00202012045
:102F38001A667047086830B478B9D1E90242D206F7
:102F480042EA84721C6C4B694D6813430A6943EA70
:102F5800024344F8253030BC7047586C8A684B6986
:102F68004C6843EA8273D1E9035200EBC40C42EA8D
:102F7800457240F83420002030BCCCF8043070474B
:102F880030B590F85C40012C844606D0036E43F0BF
:102F980004030120CCF8603030BDDCF800509646C0
:102FA800039AD5F8804042EA430343EA8E0242EA94
:102FB800011124F03F031943C5F88010002030BDEB
:102FC80090F85C20012A034605D0026E42F0040204
:102FD80001201A66704703680020C3F88410704700
:102FE800034690F85C00012805D01A6E42F00402EE
:102FF80001201A66704740291968D1F880300BBF44
:1030080023F4007323F4807343EA422243EA022242
:103018000020C1F88020704790F85C20012A034600
:1030280005D0026E42F0040201201A667047026859
:10303800536923F0FF03194300205161704700BF13
:1030480090F85C20012A034605D0026E42F0040283
:1030580001201A6670470268136A23F47023194323
:1030680000201162704700BF90F85C20012A0346D7
:1030780005D0026E42F0040201201A667047026809
:10308800136A23F00303194300201162704700BF3D
:1030980090F85C20012A034605D0026E42F0040233
:1030A80001201A6670470268136A23F003030020A0
:1030B800136270470368586A80B2704701680A6AE9
:1030C80002F00302022A034602D000204862704739
:1030D800026E42F0100201201A667047034690F80B
:1030E8005C00012805D01A6E42F0040201201A661D
:1030F80070471868836A4FF6F97C41EA024103EA8F
:103108000C02114381620020704700BF90F85C20D8
:10311800012A034605D0026E42F0040201201A6615
:1031280070470268936A43F0010300209362704776
:1031380090F85C20012A034605D0026E42F0040292
:1031480001201A6670470268936A23F00103002081
:10315800936270470368D86A80B270470168024674
:10316800886A10F0060001D1C8627047136E43F0F8
:103178001003012013667047034690F85C0001288D
:1031880005D01A6E42F0040201201A6670471B68C7
:1031980042EA01229A640020704700BF90F85C2040
:1031A800012A034605D0026E42F0040201201A6685
:1031B80070470268D36843F400030020D360704767
:1031C80090F85C20012A034605D0026E42F0040202
:1031D80001201A6670470268D36823F400030020B0
:1031E800D360704790F85C20012A034605D0026E30
:1031F80042F0040201201A6670470268936923F4BA
:10320800004300209361704790F85C20012A034630
:1032180005D0026E42F0040201201A667047026867
:10322800936943F4004300209361704790F85C2051
:10323800012A034605D0026E42F0040201201A66F4
:1032480070470268936943F4005300209361704704
:1032580090F85C20012A034605D0026E42F0040271
:1032680001201A6670470268936923F4005300200E
:103278009361704790F85C20012A034605D0026EDE
:1032880042F0040201201A6670470068022283F89F
:103298005C208269002122F00102826108461966D9
:1032A800704700BF90F85C30022B014617D10268C6
:1032B800936943F0010393619369DB0758BF0B23BC
:1032C80013D49069C00710D4013BFAD10B6E0322C6
:1032D80043F001030B66012081F85C207047036E00
:1032E80043F0080301200B667047936923F010032D
:1032F800936193691B0748BF0B2305D590690007A5
:1033080002D5013BFAD1E1E79369002043F00203BB
:103318004FF0010C9361886581F85CC0704700BF6D
:1033280088B110B50446FFF7BDFF2268D36D23F0BE
:1033380003032046D365FDF763FA0023236684F868
:103348005C30184610BD0120704700BFF0B590F8FA
:103358005C30022B86460CD10568D5F8C43013F4CE
:10336800001C0DD0036E43F400730120CEF86030CA
:10337800F0BD036E43F008030120CEF86030F0BDC5
:10338800D5F8C4604B68C6F30146002B3BD18B6867
:103398000F691F430B6847EA8347D1E906034C6965
:1033A8000343C86823430C6A034343EA0463DEF813
:1033B800540006EBC60440F8347000EBC400164C09
:1033C8004360CB897C44E35CA3B19378D7781B0432
:1033D80043EA076317783B43577843EA07230CEB24
:1033E80000070CF1040CBB60CB89E35C9C4502F13F
:1033F8000402EAD3012303FA06F6C5F8CC600020DC
:10340800CEF85860F0BD0B690F681F438B681F43E7
:1034180047F08047C1E700BF5C140000806D70472B
:1034280090F85C20022A034605D0026E42F008029A
:1034380001201A66704703680020C3F8D01070474F
:10344800F0B5044690F85C0002280DD14029D4F864
:1034580000C00FD0DCF89800000760D1236E43F459
:10346800807301202366F0BD236E43F0080301201A
:103478002366F0BDDCF890000507EFD0DCF890700B
:10348800A56CC7F3012707EBC70005EBC005286843
:1034980000F080405060002850D12868C0F38A406E
:1034A8001060286800F000509060286800F0004024
:1034B8001061A888D061686800F47020D0606E68D8
:1034C80006F4801656616E6806F400169661EE7969
:1034D80006F07F0616621B4E000C7E4416F800E0CC
:1034E8006868C00F5062BEF1000F10D003F1FF3EB4
:1034F80005F1070C63461CF8010F0EF8010FD0897F
:10350800063B305C5B1B9842F4D8D4F800C04029D5
:103518000CBFCCF89470CCF89C700020F0BDDCF89F
:103528009870E56CC7F3012707EBC70005EBC005EA
:10353800286800F0804050600028AED0286820F04D
:103548006040ADE74613000090F85C20022A03466D
:103558000CD130B40468D4F8E42052070CD1026EC0
:1035680042F48072012030BC1A667047026E42F045
:10357800080201201A667047D4F8E420006DC2F3EF
:10358800012300EBC30250F8335005F080454D602D
:103598003DB350F8335025F060450D6050F8335076
:1035A80005F000558D6050F8330000F000400861C8
:1035B8009088C861506800F47020C860506800F4B2
:1035C80080104861506800F400108861506800F469
:1035D80040004862D2790A620020C4F8E83030BC62
:1035E800704750F83350C5F38A45D6E7036810B4DE
:1035F800D3F88840D3F88800D3F88820D3F88830E7
:10360800C4F3C034C0F3042002F0C00203F007037F
:10361800C1E90040C1E9022300205DF8044B70476E
:1036280003685B6C10B4C3F3022203F00704C1E91A
:10363800004203F01804C3F34012C1E90242C3F385
:103648008014C3F3C012C1E90442C3F3C024C3F316
:103658000032C1E90642C3F34034C3F38032C3F3F6
:103668000643C1E9084200205DF8044B8B627047AD
:1036780003681B6C10B4C3F30622DCB2C1E9004234
:10368800C3F3C032C3F307430020C1E902235DF846
:10369800044B70470368D3F8C8300B4214BF0120AD
:1036A80000207047036840290CBFD3F89000D3F876
:1036B800980000F00F0070470368D3F8C40000F0CA
:1036C8000700704703689869C0F38000704700BF1F
:1036D80090F85C20013A012A034605D9026E42F0AF
:1036E800020201201A6670470268936923F00403F6
:1036F80000209361704700BF034690F85C000138D2
:10370800012805D91A6E42F0020201201A66704794
:10371800012A1A68936D0CBF23EA0101194300209E
:1037280091657047034690F85C000138012805D977
:103738001A6E42F0020201201A6670471B6830B404
:1037480011F00705986D3DD0C4073BD4DC6D44F0FB
:103758000104DC65CDB1C50717D5D86D40F002006E
:10376800D8650C0604D5D3F8DC001043C3F8DC0098
:10377800C80504D5D3F8E0000243C3F8E0205A6D29
:103788001143002030BC5965704711F0380F01D043
:103798008407E2D411F4E07F31D111F4F05F01D055
:1037A8000407DAD411F4604F01D0C506D5D411F45A
:1037B800403F01D08406D0D411F47C0FD1D0450607
:1037C800CFD5CAE711F0380F01D08407BED511F460
:1037D800E07F17D111F4F05F01D00407B6D511F4DA
:1037E800604F01D0C406B1D511F4403F01D0840622
:1037F800ACD511F47C0FADD04406ABD4A6E7450791
:10380800ABD4CAE74407A1D5E4E700BF90F85C2031
:10381800013A012A034605D9026E42F0020201204C
:103828001A6670470268536D23EA010330B4536582
:103838000B0644BF0023C2F8DC30CD0544BF00238B
:10384800C2F8E030536D916D13F0070009D0CC0732
:1038580007D403F038045CB1880709D5002030BCD0
:10386800704713F0380422D08D0720D4002842D1A5
:1038780013F4E07F01D04D07F0D413F4F05F01D0CA
:103888000C07EBD413F4604F01D0C806E6D413F448
:10389800403F01D08D06E1D413F47C0F01D04C06D3
:1038A800DCD4D36D23F002030020D365D7E713F4EB
:1038B800E07F09D113F4F05F09D00D0707D4002881
:1038C800C9D0CD07C7D5C9E74D07F8D5F2E713F436
:1038D800604F01D0CD06F2D513F4403F01D08D06DC
:1038E800EDD513F47C0F01D04D06E8D5D56D25F044
:1038F8000105D565E3E7C807B0D4B9E7704700BF4D
:10390800704700BF704700BF704700BF704700BFD7
:10391800704700BF704700BF704700BF704700BFC7
:10392800704700BF704700BF2DE9F84303681A6D60
:10393800596D02EA01091A6D596D1F6D02EA0108F5
:103948005A6D1D6D17405A6D1E6D15405A6D164003
:103958001A6D5206044609F4E05908F0070807F002
:10396800380705F4710506F4602602D55A6D51062C
:1039780073D41A6DD20502D55A6DD0055DD4B9F14C
:10398800000F4AD1B8F1000F37D1002F3ED11A6D80
:10399800910502D55A6D920575D41A6D170602D590
:1039A8005A6D100677D41A6D910402D55A6D920497
:1039B80059D41A6D170402D55A6D10045BD41A6DC8
:1039C800510409D55A6D520406D54FF480421A6540
:1039D800226E42F0800222664EB925B123681D6529
:1039E800236E1D432566236E13BBBDE8F8831E6551
:1039F80031462046FFF796FFEFE7C3F8508041466F
:103A08002046FFF77DFF2368002FC0D01F65394689
:103A18002046FFF777FF2368B9E7C3F85090494677
:103A28002046FFF76BFF2368B8F1000FADD0E4E73D
:103A38002046FFF775FFBDE8F883D3F8D810D3F810
:103A4800E02011404FF480721A652046FFF760FFAE
:103A58002368B9F1000F95D0DFE740221A65FFF718
:103A68005DFF236885E74FF400521A652046FFF78B
:103A780051FF23689DE74FF400421A652046FFF77F
:103A88004BFF23689BE74FF400721A652046FFF747
:103A98003BFF236881E7D3F8D410D3F8DC2011402A
:103AA80080221A652046FFF731FF23687BE700BFB5
:103AB80090F85C00704700BF006E704700287AD00D
:103AC80070B53E4B04689C425FD93D4A3D4B224449
:103AD800A3FB023212093C4B9200C0E91032D0E934
:103AE8000253022180F825100169C6692B430B4354
:103AF80041690B4381690B4333435FFA84FC314EC0
:103B08002168ACF1080CA6FB0C6C066A21F4FF4195
:103B180021F0700133430B4323602C4E274B2C4973
:103B2800CCF3041C9C4298BF31464FF0010E294C3F
:103B3800C4640EFA0CF35418B5F5804F0365846419
:103B48004FEA92022CD04568ECB2013D032D41F8B2
:103B58002240C6F8843029D81F4B20492344013C11
:103B68009B0004F01F040EFA04F40022C0E915318A
:103B7800C4651A601A4B5C6400230122C36380F891
:103B8800243080F82520184670BD164A0D4B224473
:103B9800A3FB02321209144B9200C0E910329EE7CF
:103BA8000024446041F82240C6F884300023C0E96C
:103BB8001533C365E0E70120704700BF07040240E2
:103BC800F8FBFDBFCDCCCCCC00040240000802407D
:103BD80020080240800802403F820010400902404D
:103BE80000090240F8FFFDBF0000024000285FD036
:103BF800036830491A688B4222F0010230B41A6017
:103C080043D92D4A2D492E4C1A44A1FB0212120900
:103C180092000021C0E9104202F01F05196001213D
:103C2800A94061602749284D4FEA920C0A448264F2
:103C3800264AC264DBB2214A083BA2FB0323C3F332
:103C48000413012202FA03F30024036541F82C400F
:103C5800C5F8843041684B1E032B06D89A401C4B8C
:103C68000B449B001C60C5F844210023C36380F803
:103C7800243080F82530C0E91533C0E90B33C0E99A
:103C88000D33C36530BC18467047124A0B49124CB5
:103C98001A44A1FB0212120992000021C0E9104245
:103CA80002F01F0519600121A94061600649BAE7C1
:103CB8000120704707040240F8FBFDBFCDCCCCCCF7
:103CC8000004024020080240000802408008024028
:103CD8003F820010F8FFFDBF00000240F0B490F8EA
:103CE8002440012C35D0012480F8244090F8254048
:103CF800012C05D0002380F82430F0BC0220704746
:103D0800022480F825400024C4630468C66C256832
:103D180025F001052560D0E91475776015B1D0E963
:103D280016566E60456C066C05F01F0C8568012000
:103D3800102D00FA0CF0706063600BBFA260A160E8
:103D4800E160E260236843F0010300202360F0BCD7
:103D580070470220F0BC7047F0B490F82440012C62
:103D680051D0012480F8244090F82540012C05D03A
:103D7800002380F82430F0BC02207047022480F829
:103D880025400024C4630468C66C256825F0010535
:103D98002560D0E91475776015B1D0E916677760AA
:103DA800466C076C06F01F0C012606FA0CF67E60BE
:103DB80063608368102B036B0BBFA260A160E16096
:103DC800E260BBB1236843F00E032360836C1A687A
:103DD800D20303D51A6842F480721A601DB12B68A9
:103DE80043F480732B60236843F0010300202360B1
:103DF800F0BC7047236823F004032360236843F072
:103E08000A032360E2E70220F0BC704790F82520FF
:103E1800022A034609D00422C2630121002201209C
:103E280083F8251083F8242070470268596C30B451
:103E3800846C10681D6C20F00E001060206820F45F
:103E4800807020601068DC6C20F00100106001F0C8
:103E58001F0101228A40D3E914106A60616038B1F9
:103E68000268D3E9161422F4807202604C600020C4
:103E78000121002283F8251083F8242030BC7047E4
:103E880038B590F82530022B09D0012304210022EF
:103E9800C16380F8242080F82530184638BD0368AF
:103EA800846C1968426C056C21F00E011960196860
:103EB80021F0010119602368C16C23F48073236029
:103EC80002F01F0201239340D0E914426B604C605A
:103ED80032B11368D0E9161423F4807313604C6070
:103EE800836B0122002480F8252080F8244013B138
:103EF8009847204638BD184638BD00BF2DE9F84F11
:103F080090F82530022B074607D004220023C2630D
:103F180080F824300120BDE8F88FDCB203681B6804
:103F28009B0645D4436C89469046002946D103F048
:103F38001F039C4000F0FAFA4FF0080B8246796C98
:103F48003D6C01F01F010BFA01F205E02E681642E4
:103F580036D1B8F1FF3F3FD12B682340F6D07B6DB7
:103F68006BB1D7E916201468044208D01C6844F4E1
:103F780080741C605060FB6B43F48063FB63D7E97B
:103F880013321868104204D05A60FB6B43F4007374
:103F9800FB63B9F1000F31D1022303FA01F10123C8
:103FA800696087F82530002087F82400BDE8F88F7D
:103FB8004FF48073C3630120BDE8F88F0424B6E78B
:103FC800012202FA01F16960FA6387F8243087F860
:103FD80025201046BDE8F88F00F0A8FAA0EB0A00EB
:103FE800404502D8B8F1000FA9D1012020220023B2
:103FF800FA6387F8243087F825008CE7042303FA4E
:1040080001F16960CFE700BF70B4436C066C0568C6
:1040180031682C6803F01F0304229A400A420ED02C
:1040280014F0040F0BD02B689B0603D42B6823F0E5
:1040380004032B60036B7260CBB170BC184702227B
:104048009A400A4215D014F0020F12D02B68990634
:1040580006D42B6823F00A032B60012380F825304F
:10406800C36A7260002180F82410002BE5D170BC6F
:10407800704708229A400A42F9D02207F7D52A68E1
:10408800416B22F00E022A60012202FA03F3002497
:104098007360C26380F8244080F825200029E6D0A8
:1040A80070BC084790F82430012B24D090F825C024
:1040B800BCF1010F5FFA8CF305D00123002280F8D0
:1040C80024201846704700B5032905D8DFE801F019
:1040D80002100D0AC2620B46002280F824201846FE
:1040E8005DF804FB82630023F6E742630023F3E7ED
:1040F80002630023F0E702231846704790F8243043
:10410800012B15D090F825204FF0010C624580F85E
:1041180024C0D3B205D06346002280F82420184674
:1041280070470429F8D8DFE801F00C1013160600D0
:104138000223184670470023C0E90B33C0E90D334A
:10414800EAE70023C3620B46E6E700230363E3E7DD
:1041580000234363E0E700238363DDE790F825004D
:10416800704700BFC06B70470749CA6803024FF623
:10417800FF0003F4E0630240134343F0BF6343F4DA
:104188000033CB60704700BF00ED00E01C4BDB68DC
:10419800C3F3022300B5C3F1070EBEF1040F03F108
:1041A800040C28BF4FF0040EBCF1060F1BD9033BCB
:1041B8004FF0FF3C0CFA03FC22EA0C024FF0FF3CE4
:1041C8000CFA0EFC21EA0C019940002841EA020190
:1041D8000CDB00F16040090100F56140C9B280F8CC
:1041E80000135DF804FB00221346E7E7054B00F0D7
:1041F8000F0009010344C9B219765DF804FB00BF3A
:1042080000ED00E0FCEC00E0002808DB044A41096E
:10421800012300F01F0003FA00F042F82100704764
:1042280000E100E000280DDB4309074901222033A3
:1042380000F01F0002FA00F041F82300BFF34F8F8F
:10424800BFF36F8F704700BF00E100E0BFF34F8FEF
:104258000549064BCA6802F4E0621343CB60BFF31A
:104268004F8F00BFFDE700BF00ED00E00400FA0536
:104278000138B0F1807F10D210B44FF0E023084C21
:1042880058614FF0F00C84F823C000220721104633
:104298009A615DF8044B196170470120704700BFAF
:1042A80000ED00E0024BD868C0F30220704700BF61
:1042B80000ED00E0002810B427DB00F1604000F5B5
:1042C800614090F80003000901F00701C1F1070CF3
:1042D800BCF1040F01F1040428BF4FF0040C062CB4
:1042E80011D903394FF0FF348C4020EA0404C84048
:1042F8004FF0FF3101FA0CF120EA010010601C6058
:104308005DF8044B70470024F2E7034C00F00F00FF
:104318000444207E0009D7E7FCEC00E0002809DB14
:104328004309054900F01F000122403302FA00F05A
:1043380041F82300704700BF00E100E000280BDBD4
:104348004309064A403300F01F0052F8233023FA8D
:1043580000F000F0010070470020704700E100E025
:10436800002809DB4309054900F01F0001226033DA
:1043780002FA00F041F82300704700BF00E100E0B6
:1043880000280BDB4309064A803300F01F0052F86F
:10439800233023FA00F000F0010070470020704736
:1043A80000E100E04FF0E022042813690CBF43F05D
:1043B800040323F004031361704700BF704700BF74
:1043C80008B5FFF7FBFF08BD044B40F00100C3F838
:1043D8009400BFF34F8FBFF36F8F704700ED00E07D
:1043E800BFF35F8F024B0022C3F89420704700BFD1
:1043F80000ED00E017494378C1F89830027822B3FD
:10440800436800B5C1F89C30C37A90F80CC090F8A6
:104418000FE01B0643EA0C7390F80AC0134343EA03
:10442800CC4390F80DC0827B43EA8C4343EA424375
:1044380090F809C0027A43EA0E4343EA0C2343EAA0
:104448004203C1F8A0305DF804FBC1F89C20C1F814
:10445800A020704700ED00E0704700BF704700BF24
:1044680010B5094B00244FF0FF329A639C631A641D
:104478001C649A629C62DA62DC621A631C63FFF74E
:10448800EDFF204610BD00BF0010024070B5124D70
:10449800124B7D44EB581B680BB9012070BD104AC4
:1044A800AA5806464FF47A70B0FBF3F31068B0FBD5
:1044B800F3F0FFF7DDFE04460028EED10F2EECD80E
:1044C800024631464FF0FF30FFF760FE054BEB58D0
:1044D80020461E6070BD00BF3ABDFFFFB445000016
:1044E800B0450000BC45000010B50320FFF73CFEB6
:1044F8000020FFF7CBFF10B10124204610BD044671
:10450800FFF7AAFF204610BD054B064A06497B4423
:104518009858595800680A6802440A60704700BFF2
:10452800BEBCFFFFB4450000B8450000024B034A7B
:104538007B449B58186870479CBCFFFFB845000037
:10454800024B034A7B449B581868704788BCFFFF9E
:10455800BC45000038B5094A094B7A44D458256847
:10456800854201D1002038BD064B2060D358186819
:10457800FFF78CFF0028F6D0256038BD72BCFFFF1E
:10458800B4450000BC450000024B034A7B449B58DD
:104598001868704740BCFFFFB445000038B50446B2
:1045A800FFF7C4FF074B621C7B44054603D0064A4D
:1045B8009B581B681C44FFF7B9FF431BA342FAD35F
:1045C80038BD00BF24BCFFFFB44500004FF0E02217
:1045D800136923F002031361704700BF4FF0E02214
:1045E800136943F002031361704700BF0048704726
:1045F80000010201014B1868000C7047002004E01C
:10460800024B1868C0F30B00704700BF002004E09D
:10461800024A536843F0010353607047002004E0E6
:10462800024A536823F0010353607047002004E0F6
:10463800024A536843F0020353607047002004E0C5
:10464800024A536823F0020353607047002004E0D5
:10465800024A536843F0040353607047002004E0A3
:10466800024A536823F0040353607047002004E0B3
:10467800044B5322CA2159625A629A6942F00102D4
:104688009A61704700000140024A136843F480733E
:104698001360704700000140024A136823F48073D6
:1046A8001360704700000140034A136B23F0300386
:1046B80018431063704700BF00000140034A136BA2
:1046C80023F0020318431063704700BF0000014045
:1046D800034A536B23F03F0318435063704700BFEE
:1046E8000000014038B50A4C236B43F001032363F3
:1046F800FFF71CFF054604E0FFF718FF401B0A28D8
:1047080004D8236B1B07F7D5002038BD032038BD1C
:1047180000000140024A136B23F001031363704742
:1047280000000140024A536843F4807353607047A5
:1047380000000140024A536823F4807353607047B5
:1047480000000140024A536843F400735360704705
:1047580000000140024A536823F400735360704715
:1047680000000140024A136A18431062704700BFF4
:1047780000000140FEE700BF0000000024480008D8
:104788003404002038040020400500203C040020A8
:104798001448000880040020E00400200000000005
:1047A8000000000000000000F8B500BFF8BC08BC1D
:1047B8009E467047F8B500BFF8BC08BC9E467047D7
:1047C8000227052707272E2730270D272A271127F5
:1047D80010271A27372714273A2723271F2739276F
:1047E800262700000227052707272E2730270D2711
:1047F8002A27112710271A27372714273A2723276C
:104808001F27392726270000080000200000000085
:104818000000000001020304060708090000000068
:10482800010203040001020304050607080C101422
:0448380018203040D4
:08483C00DCB9FF7F0100000060
:08484400B5030008FD010008A6
:04484C00D901000886
:10485000000000000800002000000000F40200201A
:104860005C030020C40300200000000000000000E2
:104870000000000000000000000000000000000038
:104880000000000000000000000000000000000028
:104890000000000000000000000000000000000018
:1048A0000000000000000000000000000000000008
:1048B00000000000000000000000000000000000F8
:1048C00000000000000000000000000000000000E8
:1048D00000000000000000000000000000000000D8
:1048E00000000000000000000000000000000000C8
:1048F00000000000000000000000000000000000B8
:1049000001000000000000000E33CDAB34126DE654
:10491000ECDE05000B0000000000000000000000BD
:104920000000000000000000000000000000000087
:104930000000000000000000000000000000000077
:104940000000000000000000000000000000000067
:104950000000000000000000000000000000000057
:104C8000640400200024F400010000001000000073
:0400000508000831B6
:00000001FF
